{
  "_format": "hh-sol-artifact-1",
  "contractName": "MyToken721",
  "sourceName": "contracts/ERC721.sol",
  "abi": [
    {
      "inputs": [
        {
          "internalType": "address",
          "name": "initialOwner",
          "type": "address"
        }
      ],
      "stateMutability": "nonpayable",
      "type": "constructor"
    },
    {
      "inputs": [
        {
          "internalType": "address",
          "name": "sender",
          "type": "address"
        },
        {
          "internalType": "uint256",
          "name": "tokenId",
          "type": "uint256"
        },
        {
          "internalType": "address",
          "name": "owner",
          "type": "address"
        }
      ],
      "name": "ERC721IncorrectOwner",
      "type": "error"
    },
    {
      "inputs": [
        {
          "internalType": "address",
          "name": "operator",
          "type": "address"
        },
        {
          "internalType": "uint256",
          "name": "tokenId",
          "type": "uint256"
        }
      ],
      "name": "ERC721InsufficientApproval",
      "type": "error"
    },
    {
      "inputs": [
        {
          "internalType": "address",
          "name": "approver",
          "type": "address"
        }
      ],
      "name": "ERC721InvalidApprover",
      "type": "error"
    },
    {
      "inputs": [
        {
          "internalType": "address",
          "name": "operator",
          "type": "address"
        }
      ],
      "name": "ERC721InvalidOperator",
      "type": "error"
    },
    {
      "inputs": [
        {
          "internalType": "address",
          "name": "owner",
          "type": "address"
        }
      ],
      "name": "ERC721InvalidOwner",
      "type": "error"
    },
    {
      "inputs": [
        {
          "internalType": "address",
          "name": "receiver",
          "type": "address"
        }
      ],
      "name": "ERC721InvalidReceiver",
      "type": "error"
    },
    {
      "inputs": [
        {
          "internalType": "address",
          "name": "sender",
          "type": "address"
        }
      ],
      "name": "ERC721InvalidSender",
      "type": "error"
    },
    {
      "inputs": [
        {
          "internalType": "uint256",
          "name": "tokenId",
          "type": "uint256"
        }
      ],
      "name": "ERC721NonexistentToken",
      "type": "error"
    },
    {
      "inputs": [
        {
          "internalType": "address",
          "name": "owner",
          "type": "address"
        }
      ],
      "name": "OwnableInvalidOwner",
      "type": "error"
    },
    {
      "inputs": [
        {
          "internalType": "address",
          "name": "account",
          "type": "address"
        }
      ],
      "name": "OwnableUnauthorizedAccount",
      "type": "error"
    },
    {
      "anonymous": false,
      "inputs": [
        {
          "indexed": true,
          "internalType": "address",
          "name": "owner",
          "type": "address"
        },
        {
          "indexed": true,
          "internalType": "address",
          "name": "approved",
          "type": "address"
        },
        {
          "indexed": true,
          "internalType": "uint256",
          "name": "tokenId",
          "type": "uint256"
        }
      ],
      "name": "Approval",
      "type": "event"
    },
    {
      "anonymous": false,
      "inputs": [
        {
          "indexed": true,
          "internalType": "address",
          "name": "owner",
          "type": "address"
        },
        {
          "indexed": true,
          "internalType": "address",
          "name": "operator",
          "type": "address"
        },
        {
          "indexed": false,
          "internalType": "bool",
          "name": "approved",
          "type": "bool"
        }
      ],
      "name": "ApprovalForAll",
      "type": "event"
    },
    {
      "anonymous": false,
      "inputs": [
        {
          "indexed": true,
          "internalType": "address",
          "name": "previousOwner",
          "type": "address"
        },
        {
          "indexed": true,
          "internalType": "address",
          "name": "newOwner",
          "type": "address"
        }
      ],
      "name": "OwnershipTransferred",
      "type": "event"
    },
    {
      "anonymous": false,
      "inputs": [
        {
          "indexed": true,
          "internalType": "address",
          "name": "from",
          "type": "address"
        },
        {
          "indexed": true,
          "internalType": "address",
          "name": "to",
          "type": "address"
        },
        {
          "indexed": true,
          "internalType": "uint256",
          "name": "tokenId",
          "type": "uint256"
        }
      ],
      "name": "Transfer",
      "type": "event"
    },
    {
      "inputs": [
        {
          "internalType": "address",
          "name": "to",
          "type": "address"
        },
        {
          "internalType": "uint256",
          "name": "tokenId",
          "type": "uint256"
        }
      ],
      "name": "approve",
      "outputs": [],
      "stateMutability": "nonpayable",
      "type": "function"
    },
    {
      "inputs": [
        {
          "internalType": "address",
          "name": "owner",
          "type": "address"
        }
      ],
      "name": "balanceOf",
      "outputs": [
        {
          "internalType": "uint256",
          "name": "",
          "type": "uint256"
        }
      ],
      "stateMutability": "view",
      "type": "function"
    },
    {
      "inputs": [
        {
          "internalType": "uint256",
          "name": "tokenId",
          "type": "uint256"
        }
      ],
      "name": "getApproved",
      "outputs": [
        {
          "internalType": "address",
          "name": "",
          "type": "address"
        }
      ],
      "stateMutability": "view",
      "type": "function"
    },
    {
      "inputs": [
        {
          "internalType": "address",
          "name": "owner",
          "type": "address"
        },
        {
          "internalType": "address",
          "name": "operator",
          "type": "address"
        }
      ],
      "name": "isApprovedForAll",
      "outputs": [
        {
          "internalType": "bool",
          "name": "",
          "type": "bool"
        }
      ],
      "stateMutability": "view",
      "type": "function"
    },
    {
      "inputs": [],
      "name": "name",
      "outputs": [
        {
          "internalType": "string",
          "name": "",
          "type": "string"
        }
      ],
      "stateMutability": "view",
      "type": "function"
    },
    {
      "inputs": [],
      "name": "owner",
      "outputs": [
        {
          "internalType": "address",
          "name": "",
          "type": "address"
        }
      ],
      "stateMutability": "view",
      "type": "function"
    },
    {
      "inputs": [
        {
          "internalType": "uint256",
          "name": "tokenId",
          "type": "uint256"
        }
      ],
      "name": "ownerOf",
      "outputs": [
        {
          "internalType": "address",
          "name": "",
          "type": "address"
        }
      ],
      "stateMutability": "view",
      "type": "function"
    },
    {
      "inputs": [],
      "name": "renounceOwnership",
      "outputs": [],
      "stateMutability": "nonpayable",
      "type": "function"
    },
    {
      "inputs": [
        {
          "internalType": "address",
          "name": "to",
          "type": "address"
        },
        {
          "internalType": "uint256",
          "name": "tokenId",
          "type": "uint256"
        }
      ],
      "name": "safeMint",
      "outputs": [],
      "stateMutability": "nonpayable",
      "type": "function"
    },
    {
      "inputs": [
        {
          "internalType": "address",
          "name": "from",
          "type": "address"
        },
        {
          "internalType": "address",
          "name": "to",
          "type": "address"
        },
        {
          "internalType": "uint256",
          "name": "tokenId",
          "type": "uint256"
        }
      ],
      "name": "safeTransferFrom",
      "outputs": [],
      "stateMutability": "nonpayable",
      "type": "function"
    },
    {
      "inputs": [
        {
          "internalType": "address",
          "name": "from",
          "type": "address"
        },
        {
          "internalType": "address",
          "name": "to",
          "type": "address"
        },
        {
          "internalType": "uint256",
          "name": "tokenId",
          "type": "uint256"
        },
        {
          "internalType": "bytes",
          "name": "data",
          "type": "bytes"
        }
      ],
      "name": "safeTransferFrom",
      "outputs": [],
      "stateMutability": "nonpayable",
      "type": "function"
    },
    {
      "inputs": [
        {
          "internalType": "address",
          "name": "operator",
          "type": "address"
        },
        {
          "internalType": "bool",
          "name": "approved",
          "type": "bool"
        }
      ],
      "name": "setApprovalForAll",
      "outputs": [],
      "stateMutability": "nonpayable",
      "type": "function"
    },
    {
      "inputs": [
        {
          "internalType": "string",
          "name": "newUri",
          "type": "string"
        }
      ],
      "name": "setURI",
      "outputs": [],
      "stateMutability": "nonpayable",
      "type": "function"
    },
    {
      "inputs": [
        {
          "internalType": "bytes4",
          "name": "interfaceId",
          "type": "bytes4"
        }
      ],
      "name": "supportsInterface",
      "outputs": [
        {
          "internalType": "bool",
          "name": "",
          "type": "bool"
        }
      ],
      "stateMutability": "view",
      "type": "function"
    },
    {
      "inputs": [],
      "name": "symbol",
      "outputs": [
        {
          "internalType": "string",
          "name": "",
          "type": "string"
        }
      ],
      "stateMutability": "view",
      "type": "function"
    },
    {
      "inputs": [
        {
          "internalType": "uint256",
          "name": "tokenId",
          "type": "uint256"
        }
      ],
      "name": "tokenURI",
      "outputs": [
        {
          "internalType": "string",
          "name": "",
          "type": "string"
        }
      ],
      "stateMutability": "view",
      "type": "function"
    },
    {
      "inputs": [
        {
          "internalType": "address",
          "name": "from",
          "type": "address"
        },
        {
          "internalType": "address",
          "name": "to",
          "type": "address"
        },
        {
          "internalType": "uint256",
          "name": "tokenId",
          "type": "uint256"
        }
      ],
      "name": "transferFrom",
      "outputs": [],
      "stateMutability": "nonpayable",
      "type": "function"
    },
    {
      "inputs": [
        {
          "internalType": "address",
          "name": "newOwner",
          "type": "address"
        }
      ],
      "name": "transferOwnership",
      "outputs": [],
      "stateMutability": "nonpayable",
      "type": "function"
    }
  ],
  "bytecode": "0x608060405234801561001057600080fd5b50604051612a91380380612a9183398181016040528101906100329190610272565b806040518060400160405280600781526020017f4d79546f6b656e000000000000000000000000000000000000000000000000008152506040518060400160405280600381526020017f4d544b000000000000000000000000000000000000000000000000000000000081525081600090816100ae91906104ef565b5080600190816100be91906104ef565b505050600073ffffffffffffffffffffffffffffffffffffffff168173ffffffffffffffffffffffffffffffffffffffff16036101335760006040517f1e4fbdf700000000000000000000000000000000000000000000000000000000815260040161012a91906105d0565b60405180910390fd5b6101428161014960201b60201c565b50506105eb565b6000600660009054906101000a900473ffffffffffffffffffffffffffffffffffffffff16905081600660006101000a81548173ffffffffffffffffffffffffffffffffffffffff021916908373ffffffffffffffffffffffffffffffffffffffff1602179055508173ffffffffffffffffffffffffffffffffffffffff168173ffffffffffffffffffffffffffffffffffffffff167f8be0079c531659141344cd1fd0a4f28419497f9722a3daafe3b4186f6b6457e060405160405180910390a35050565b600080fd5b600073ffffffffffffffffffffffffffffffffffffffff82169050919050565b600061023f82610214565b9050919050565b61024f81610234565b811461025a57600080fd5b50565b60008151905061026c81610246565b92915050565b6000602082840312156102885761028761020f565b5b60006102968482850161025d565b91505092915050565b600081519050919050565b7f4e487b7100000000000000000000000000000000000000000000000000000000600052604160045260246000fd5b7f4e487b7100000000000000000000000000000000000000000000000000000000600052602260045260246000fd5b6000600282049050600182168061032057607f821691505b602082108103610333576103326102d9565b5b50919050565b60008190508160005260206000209050919050565b60006020601f8301049050919050565b600082821b905092915050565b60006008830261039b7fffffffffffffffffffffffffffffffffffffffffffffffffffffffffffffffff8261035e565b6103a5868361035e565b95508019841693508086168417925050509392505050565b6000819050919050565b6000819050919050565b60006103ec6103e76103e2846103bd565b6103c7565b6103bd565b9050919050565b6000819050919050565b610406836103d1565b61041a610412826103f3565b84845461036b565b825550505050565b600090565b61042f610422565b61043a8184846103fd565b505050565b5b8181101561045e57610453600082610427565b600181019050610440565b5050565b601f8211156104a35761047481610339565b61047d8461034e565b8101602085101561048c578190505b6104a06104988561034e565b83018261043f565b50505b505050565b600082821c905092915050565b60006104c6600019846008026104a8565b1980831691505092915050565b60006104df83836104b5565b9150826002028217905092915050565b6104f88261029f565b67ffffffffffffffff811115610511576105106102aa565b5b61051b8254610308565b610526828285610462565b600060209050601f8311600181146105595760008415610547578287015190505b61055185826104d3565b8655506105b9565b601f19841661056786610339565b60005b8281101561058f5784890151825560018201915060208501945060208101905061056a565b868310156105ac57848901516105a8601f8916826104b5565b8355505b6001600288020188555050505b505050505050565b6105ca81610234565b82525050565b60006020820190506105e560008301846105c1565b92915050565b612497806105fa6000396000f3fe608060405234801561001057600080fd5b50600436106101165760003560e01c8063715018a6116100a2578063a22cb46511610071578063a22cb465146102cb578063b88d4fde146102e7578063c87b56dd14610303578063e985e9c514610333578063f2fde38b1461036357610116565b8063715018a6146102695780638da5cb5b1461027357806395d89b4114610291578063a1448194146102af57610116565b8063095ea7b3116100e9578063095ea7b3146101b557806323b872dd146101d157806342842e0e146101ed5780636352211e1461020957806370a082311461023957610116565b806301ffc9a71461011b57806302fe53051461014b57806306fdde0314610167578063081812fc14610185575b600080fd5b61013560048036038101906101309190611979565b61037f565b60405161014291906119c1565b60405180910390f35b61016560048036038101906101609190611b22565b610461565b005b61016f61047c565b60405161017c9190611bea565b60405180910390f35b61019f600480360381019061019a9190611c42565b61050e565b6040516101ac9190611cb0565b60405180910390f35b6101cf60048036038101906101ca9190611cf7565b61052a565b005b6101eb60048036038101906101e69190611d37565b610540565b005b61020760048036038101906102029190611d37565b610642565b005b610223600480360381019061021e9190611c42565b610662565b6040516102309190611cb0565b60405180910390f35b610253600480360381019061024e9190611d8a565b610674565b6040516102609190611dc6565b60405180910390f35b61027161072e565b005b61027b610742565b6040516102889190611cb0565b60405180910390f35b61029961076c565b6040516102a69190611bea565b60405180910390f35b6102c960048036038101906102c49190611cf7565b6107fe565b005b6102e560048036038101906102e09190611e0d565b610814565b005b61030160048036038101906102fc9190611eee565b61082a565b005b61031d60048036038101906103189190611c42565b610847565b60405161032a9190611bea565b60405180910390f35b61034d60048036038101906103489190611f71565b6108b0565b60405161035a91906119c1565b60405180910390f35b61037d60048036038101906103789190611d8a565b610944565b005b60007f80ac58cd000000000000000000000000000000000000000000000000000000007bffffffffffffffffffffffffffffffffffffffffffffffffffffffff1916827bffffffffffffffffffffffffffffffffffffffffffffffffffffffff1916148061044a57507f5b5e139f000000000000000000000000000000000000000000000000000000007bffffffffffffffffffffffffffffffffffffffffffffffffffffffff1916827bffffffffffffffffffffffffffffffffffffffffffffffffffffffff1916145b8061045a5750610459826109ca565b5b9050919050565b610469610a34565b806007908161047891906121bd565b5050565b60606000805461048b90611fe0565b80601f01602080910402602001604051908101604052809291908181526020018280546104b790611fe0565b80156105045780601f106104d957610100808354040283529160200191610504565b820191906000526020600020905b8154815290600101906020018083116104e757829003601f168201915b5050505050905090565b600061051982610abb565b5061052382610b43565b9050919050565b61053c8282610537610b80565b610b88565b5050565b600073ffffffffffffffffffffffffffffffffffffffff168273ffffffffffffffffffffffffffffffffffffffff16036105b25760006040517f64a0ae920000000000000000000000000000000000000000000000000000000081526004016105a99190611cb0565b60405180910390fd5b60006105c683836105c1610b80565b610b9a565b90508373ffffffffffffffffffffffffffffffffffffffff168173ffffffffffffffffffffffffffffffffffffffff161461063c578382826040517f64283d7b0000000000000000000000000000000000000000000000000000000081526004016106339392919061228f565b60405180910390fd5b50505050565b61065d8383836040518060200160405280600081525061082a565b505050565b600061066d82610abb565b9050919050565b60008073ffffffffffffffffffffffffffffffffffffffff168273ffffffffffffffffffffffffffffffffffffffff16036106e75760006040517f89c62b640000000000000000000000000000000000000000000000000000000081526004016106de9190611cb0565b60405180910390fd5b600360008373ffffffffffffffffffffffffffffffffffffffff1673ffffffffffffffffffffffffffffffffffffffff168152602001908152602001600020549050919050565b610736610a34565b6107406000610db4565b565b6000600660009054906101000a900473ffffffffffffffffffffffffffffffffffffffff16905090565b60606001805461077b90611fe0565b80601f01602080910402602001604051908101604052809291908181526020018280546107a790611fe0565b80156107f45780601f106107c9576101008083540402835291602001916107f4565b820191906000526020600020905b8154815290600101906020018083116107d757829003601f168201915b5050505050905090565b610806610a34565b6108108282610e7a565b5050565b61082661081f610b80565b8383610e98565b5050565b610835848484610540565b61084184848484611007565b50505050565b606061085282610abb565b50600061085d6111be565b9050600081511161087d57604051806020016040528060008152506108a8565b8061088784611250565b604051602001610898929190612302565b6040516020818303038152906040525b915050919050565b6000600560008473ffffffffffffffffffffffffffffffffffffffff1673ffffffffffffffffffffffffffffffffffffffff16815260200190815260200160002060008373ffffffffffffffffffffffffffffffffffffffff1673ffffffffffffffffffffffffffffffffffffffff16815260200190815260200160002060009054906101000a900460ff16905092915050565b61094c610a34565b600073ffffffffffffffffffffffffffffffffffffffff168173ffffffffffffffffffffffffffffffffffffffff16036109be5760006040517f1e4fbdf70000000000000000000000000000000000000000000000000000000081526004016109b59190611cb0565b60405180910390fd5b6109c781610db4565b50565b60007f01ffc9a7000000000000000000000000000000000000000000000000000000007bffffffffffffffffffffffffffffffffffffffffffffffffffffffff1916827bffffffffffffffffffffffffffffffffffffffffffffffffffffffff1916149050919050565b610a3c610b80565b73ffffffffffffffffffffffffffffffffffffffff16610a5a610742565b73ffffffffffffffffffffffffffffffffffffffff1614610ab957610a7d610b80565b6040517f118cdaa7000000000000000000000000000000000000000000000000000000008152600401610ab09190611cb0565b60405180910390fd5b565b600080610ac78361131e565b9050600073ffffffffffffffffffffffffffffffffffffffff168173ffffffffffffffffffffffffffffffffffffffff1603610b3a57826040517f7e273289000000000000000000000000000000000000000000000000000000008152600401610b319190611dc6565b60405180910390fd5b80915050919050565b60006004600083815260200190815260200160002060009054906101000a900473ffffffffffffffffffffffffffffffffffffffff169050919050565b600033905090565b610b95838383600161135b565b505050565b600080610ba68461131e565b9050600073ffffffffffffffffffffffffffffffffffffffff168373ffffffffffffffffffffffffffffffffffffffff1614610be857610be7818486611520565b5b600073ffffffffffffffffffffffffffffffffffffffff168173ffffffffffffffffffffffffffffffffffffffff1614610c7957610c2a60008560008061135b565b6001600360008373ffffffffffffffffffffffffffffffffffffffff1673ffffffffffffffffffffffffffffffffffffffff168152602001908152602001600020600082825403925050819055505b600073ffffffffffffffffffffffffffffffffffffffff168573ffffffffffffffffffffffffffffffffffffffff1614610cfc576001600360008773ffffffffffffffffffffffffffffffffffffffff1673ffffffffffffffffffffffffffffffffffffffff168152602001908152602001600020600082825401925050819055505b846002600086815260200190815260200160002060006101000a81548173ffffffffffffffffffffffffffffffffffffffff021916908373ffffffffffffffffffffffffffffffffffffffff160217905550838573ffffffffffffffffffffffffffffffffffffffff168273ffffffffffffffffffffffffffffffffffffffff167fddf252ad1be2c89b69c2b068fc378daa952ba7f163c4a11628f55a4df523b3ef60405160405180910390a4809150509392505050565b6000600660009054906101000a900473ffffffffffffffffffffffffffffffffffffffff16905081600660006101000a81548173ffffffffffffffffffffffffffffffffffffffff021916908373ffffffffffffffffffffffffffffffffffffffff1602179055508173ffffffffffffffffffffffffffffffffffffffff168173ffffffffffffffffffffffffffffffffffffffff167f8be0079c531659141344cd1fd0a4f28419497f9722a3daafe3b4186f6b6457e060405160405180910390a35050565b610e948282604051806020016040528060008152506115e4565b5050565b600073ffffffffffffffffffffffffffffffffffffffff168273ffffffffffffffffffffffffffffffffffffffff1603610f0957816040517f5b08ba18000000000000000000000000000000000000000000000000000000008152600401610f009190611cb0565b60405180910390fd5b80600560008573ffffffffffffffffffffffffffffffffffffffff1673ffffffffffffffffffffffffffffffffffffffff16815260200190815260200160002060008473ffffffffffffffffffffffffffffffffffffffff1673ffffffffffffffffffffffffffffffffffffffff16815260200190815260200160002060006101000a81548160ff0219169083151502179055508173ffffffffffffffffffffffffffffffffffffffff168373ffffffffffffffffffffffffffffffffffffffff167f17307eab39ab6107e8899845ad3d59bd9653f200f220920489ca2b5937696c3183604051610ffa91906119c1565b60405180910390a3505050565b60008373ffffffffffffffffffffffffffffffffffffffff163b11156111b8578273ffffffffffffffffffffffffffffffffffffffff1663150b7a0261104b610b80565b8685856040518563ffffffff1660e01b815260040161106d949392919061237b565b6020604051808303816000875af19250505080156110a957506040513d601f19601f820116820180604052508101906110a691906123dc565b60015b61112d573d80600081146110d9576040519150601f19603f3d011682016040523d82523d6000602084013e6110de565b606091505b50600081510361112557836040517f64a0ae9200000000000000000000000000000000000000000000000000000000815260040161111c9190611cb0565b60405180910390fd5b805181602001fd5b63150b7a0260e01b7bffffffffffffffffffffffffffffffffffffffffffffffffffffffff1916817bffffffffffffffffffffffffffffffffffffffffffffffffffffffff1916146111b657836040517f64a0ae920000000000000000000000000000000000000000000000000000000081526004016111ad9190611cb0565b60405180910390fd5b505b50505050565b6060600780546111cd90611fe0565b80601f01602080910402602001604051908101604052809291908181526020018280546111f990611fe0565b80156112465780601f1061121b57610100808354040283529160200191611246565b820191906000526020600020905b81548152906001019060200180831161122957829003601f168201915b5050505050905090565b60606000600161125f84611600565b01905060008167ffffffffffffffff81111561127e5761127d6119f7565b5b6040519080825280601f01601f1916602001820160405280156112b05781602001600182028036833780820191505090505b509050600082602001820190505b600115611313578080600190039150507f3031323334353637383961626364656600000000000000000000000000000000600a86061a8153600a858161130757611306612409565b5b049450600085036112be575b819350505050919050565b60006002600083815260200190815260200160002060009054906101000a900473ffffffffffffffffffffffffffffffffffffffff169050919050565b80806113945750600073ffffffffffffffffffffffffffffffffffffffff168273ffffffffffffffffffffffffffffffffffffffff1614155b156114c85760006113a484610abb565b9050600073ffffffffffffffffffffffffffffffffffffffff168373ffffffffffffffffffffffffffffffffffffffff161415801561140f57508273ffffffffffffffffffffffffffffffffffffffff168173ffffffffffffffffffffffffffffffffffffffff1614155b8015611422575061142081846108b0565b155b1561146457826040517fa9fbf51f00000000000000000000000000000000000000000000000000000000815260040161145b9190611cb0565b60405180910390fd5b81156114c657838573ffffffffffffffffffffffffffffffffffffffff168273ffffffffffffffffffffffffffffffffffffffff167f8c5be1e5ebec7d5bd14f71427d1e84f3dd0314c0f7b2291e5b200ac8c7c3b92560405160405180910390a45b505b836004600085815260200190815260200160002060006101000a81548173ffffffffffffffffffffffffffffffffffffffff021916908373ffffffffffffffffffffffffffffffffffffffff16021790555050505050565b61152b838383611753565b6115df57600073ffffffffffffffffffffffffffffffffffffffff168373ffffffffffffffffffffffffffffffffffffffff16036115a057806040517f7e2732890000000000000000000000000000000000000000000000000000000081526004016115979190611dc6565b60405180910390fd5b81816040517f177e802f0000000000000000000000000000000000000000000000000000000081526004016115d6929190612438565b60405180910390fd5b505050565b6115ee8383611814565b6115fb6000848484611007565b505050565b600080600090507a184f03e93ff9f4daa797ed6e38ed64bf6a1f010000000000000000831061165e577a184f03e93ff9f4daa797ed6e38ed64bf6a1f010000000000000000838161165457611653612409565b5b0492506040810190505b6d04ee2d6d415b85acef8100000000831061169b576d04ee2d6d415b85acef8100000000838161169157611690612409565b5b0492506020810190505b662386f26fc1000083106116ca57662386f26fc1000083816116c0576116bf612409565b5b0492506010810190505b6305f5e10083106116f3576305f5e10083816116e9576116e8612409565b5b0492506008810190505b612710831061171857612710838161170e5761170d612409565b5b0492506004810190505b6064831061173b576064838161173157611730612409565b5b0492506002810190505b600a831061174a576001810190505b80915050919050565b60008073ffffffffffffffffffffffffffffffffffffffff168373ffffffffffffffffffffffffffffffffffffffff161415801561180b57508273ffffffffffffffffffffffffffffffffffffffff168473ffffffffffffffffffffffffffffffffffffffff1614806117cc57506117cb84846108b0565b5b8061180a57508273ffffffffffffffffffffffffffffffffffffffff166117f283610b43565b73ffffffffffffffffffffffffffffffffffffffff16145b5b90509392505050565b600073ffffffffffffffffffffffffffffffffffffffff168273ffffffffffffffffffffffffffffffffffffffff16036118865760006040517f64a0ae9200000000000000000000000000000000000000000000000000000000815260040161187d9190611cb0565b60405180910390fd5b600061189483836000610b9a565b9050600073ffffffffffffffffffffffffffffffffffffffff168173ffffffffffffffffffffffffffffffffffffffff16146119085760006040517f73c6ac6e0000000000000000000000000000000000000000000000000000000081526004016118ff9190611cb0565b60405180910390fd5b505050565b6000604051905090565b600080fd5b600080fd5b60007fffffffff0000000000000000000000000000000000000000000000000000000082169050919050565b61195681611921565b811461196157600080fd5b50565b6000813590506119738161194d565b92915050565b60006020828403121561198f5761198e611917565b5b600061199d84828501611964565b91505092915050565b60008115159050919050565b6119bb816119a6565b82525050565b60006020820190506119d660008301846119b2565b92915050565b600080fd5b600080fd5b6000601f19601f8301169050919050565b7f4e487b7100000000000000000000000000000000000000000000000000000000600052604160045260246000fd5b611a2f826119e6565b810181811067ffffffffffffffff82111715611a4e57611a4d6119f7565b5b80604052505050565b6000611a6161190d565b9050611a6d8282611a26565b919050565b600067ffffffffffffffff821115611a8d57611a8c6119f7565b5b611a96826119e6565b9050602081019050919050565b82818337600083830152505050565b6000611ac5611ac084611a72565b611a57565b905082815260208101848484011115611ae157611ae06119e1565b5b611aec848285611aa3565b509392505050565b600082601f830112611b0957611b086119dc565b5b8135611b19848260208601611ab2565b91505092915050565b600060208284031215611b3857611b37611917565b5b600082013567ffffffffffffffff811115611b5657611b5561191c565b5b611b6284828501611af4565b91505092915050565b600081519050919050565b600082825260208201905092915050565b60005b83811015611ba5578082015181840152602081019050611b8a565b60008484015250505050565b6000611bbc82611b6b565b611bc68185611b76565b9350611bd6818560208601611b87565b611bdf816119e6565b840191505092915050565b60006020820190508181036000830152611c048184611bb1565b905092915050565b6000819050919050565b611c1f81611c0c565b8114611c2a57600080fd5b50565b600081359050611c3c81611c16565b92915050565b600060208284031215611c5857611c57611917565b5b6000611c6684828501611c2d565b91505092915050565b600073ffffffffffffffffffffffffffffffffffffffff82169050919050565b6000611c9a82611c6f565b9050919050565b611caa81611c8f565b82525050565b6000602082019050611cc56000830184611ca1565b92915050565b611cd481611c8f565b8114611cdf57600080fd5b50565b600081359050611cf181611ccb565b92915050565b60008060408385031215611d0e57611d0d611917565b5b6000611d1c85828601611ce2565b9250506020611d2d85828601611c2d565b9150509250929050565b600080600060608486031215611d5057611d4f611917565b5b6000611d5e86828701611ce2565b9350506020611d6f86828701611ce2565b9250506040611d8086828701611c2d565b9150509250925092565b600060208284031215611da057611d9f611917565b5b6000611dae84828501611ce2565b91505092915050565b611dc081611c0c565b82525050565b6000602082019050611ddb6000830184611db7565b92915050565b611dea816119a6565b8114611df557600080fd5b50565b600081359050611e0781611de1565b92915050565b60008060408385031215611e2457611e23611917565b5b6000611e3285828601611ce2565b9250506020611e4385828601611df8565b9150509250929050565b600067ffffffffffffffff821115611e6857611e676119f7565b5b611e71826119e6565b9050602081019050919050565b6000611e91611e8c84611e4d565b611a57565b905082815260208101848484011115611ead57611eac6119e1565b5b611eb8848285611aa3565b509392505050565b600082601f830112611ed557611ed46119dc565b5b8135611ee5848260208601611e7e565b91505092915050565b60008060008060808587031215611f0857611f07611917565b5b6000611f1687828801611ce2565b9450506020611f2787828801611ce2565b9350506040611f3887828801611c2d565b925050606085013567ffffffffffffffff811115611f5957611f5861191c565b5b611f6587828801611ec0565b91505092959194509250565b60008060408385031215611f8857611f87611917565b5b6000611f9685828601611ce2565b9250506020611fa785828601611ce2565b9150509250929050565b7f4e487b7100000000000000000000000000000000000000000000000000000000600052602260045260246000fd5b60006002820490506001821680611ff857607f821691505b60208210810361200b5761200a611fb1565b5b50919050565b60008190508160005260206000209050919050565b60006020601f8301049050919050565b600082821b905092915050565b6000600883026120737fffffffffffffffffffffffffffffffffffffffffffffffffffffffffffffffff82612036565b61207d8683612036565b95508019841693508086168417925050509392505050565b6000819050919050565b60006120ba6120b56120b084611c0c565b612095565b611c0c565b9050919050565b6000819050919050565b6120d48361209f565b6120e86120e0826120c1565b848454612043565b825550505050565b600090565b6120fd6120f0565b6121088184846120cb565b505050565b5b8181101561212c576121216000826120f5565b60018101905061210e565b5050565b601f8211156121715761214281612011565b61214b84612026565b8101602085101561215a578190505b61216e61216685612026565b83018261210d565b50505b505050565b600082821c905092915050565b600061219460001984600802612176565b1980831691505092915050565b60006121ad8383612183565b9150826002028217905092915050565b6121c682611b6b565b67ffffffffffffffff8111156121df576121de6119f7565b5b6121e98254611fe0565b6121f4828285612130565b600060209050601f8311600181146122275760008415612215578287015190505b61221f85826121a1565b865550612287565b601f19841661223586612011565b60005b8281101561225d57848901518255600182019150602085019450602081019050612238565b8683101561227a5784890151612276601f891682612183565b8355505b6001600288020188555050505b505050505050565b60006060820190506122a46000830186611ca1565b6122b16020830185611db7565b6122be6040830184611ca1565b949350505050565b600081905092915050565b60006122dc82611b6b565b6122e681856122c6565b93506122f6818560208601611b87565b80840191505092915050565b600061230e82856122d1565b915061231a82846122d1565b91508190509392505050565b600081519050919050565b600082825260208201905092915050565b600061234d82612326565b6123578185612331565b9350612367818560208601611b87565b612370816119e6565b840191505092915050565b60006080820190506123906000830187611ca1565b61239d6020830186611ca1565b6123aa6040830185611db7565b81810360608301526123bc8184612342565b905095945050505050565b6000815190506123d68161194d565b92915050565b6000602082840312156123f2576123f1611917565b5b6000612400848285016123c7565b91505092915050565b7f4e487b7100000000000000000000000000000000000000000000000000000000600052601260045260246000fd5b600060408201905061244d6000830185611ca1565b61245a6020830184611db7565b939250505056fea26469706673582212200995d2f1363cad2a7c628426904d845b5ffe4f88e55b0ef8a25f225a5763061264736f6c634300081b0033",
  "linkReferences": {},
  "deployedLinkReferences": {}
}