{
  "_format": "hh-sol-artifact-1",
  "contractName": "MyToken20",
  "sourceName": "contracts/ERC20.sol",
  "abi": [
    {
      "inputs": [
        {
          "internalType": "address",
          "name": "initialOwner",
          "type": "address"
        }
      ],
      "stateMutability": "nonpayable",
      "type": "constructor"
    },
    {
      "inputs": [],
      "name": "ECDSAInvalidSignature",
      "type": "error"
    },
    {
      "inputs": [
        {
          "internalType": "uint256",
          "name": "length",
          "type": "uint256"
        }
      ],
      "name": "ECDSAInvalidSignatureLength",
      "type": "error"
    },
    {
      "inputs": [
        {
          "internalType": "bytes32",
          "name": "s",
          "type": "bytes32"
        }
      ],
      "name": "ECDSAInvalidSignatureS",
      "type": "error"
    },
    {
      "inputs": [
        {
          "internalType": "address",
          "name": "spender",
          "type": "address"
        },
        {
          "internalType": "uint256",
          "name": "allowance",
          "type": "uint256"
        },
        {
          "internalType": "uint256",
          "name": "needed",
          "type": "uint256"
        }
      ],
      "name": "ERC20InsufficientAllowance",
      "type": "error"
    },
    {
      "inputs": [
        {
          "internalType": "address",
          "name": "sender",
          "type": "address"
        },
        {
          "internalType": "uint256",
          "name": "balance",
          "type": "uint256"
        },
        {
          "internalType": "uint256",
          "name": "needed",
          "type": "uint256"
        }
      ],
      "name": "ERC20InsufficientBalance",
      "type": "error"
    },
    {
      "inputs": [
        {
          "internalType": "address",
          "name": "approver",
          "type": "address"
        }
      ],
      "name": "ERC20InvalidApprover",
      "type": "error"
    },
    {
      "inputs": [
        {
          "internalType": "address",
          "name": "receiver",
          "type": "address"
        }
      ],
      "name": "ERC20InvalidReceiver",
      "type": "error"
    },
    {
      "inputs": [
        {
          "internalType": "address",
          "name": "sender",
          "type": "address"
        }
      ],
      "name": "ERC20InvalidSender",
      "type": "error"
    },
    {
      "inputs": [
        {
          "internalType": "address",
          "name": "spender",
          "type": "address"
        }
      ],
      "name": "ERC20InvalidSpender",
      "type": "error"
    },
    {
      "inputs": [
        {
          "internalType": "uint256",
          "name": "deadline",
          "type": "uint256"
        }
      ],
      "name": "ERC2612ExpiredSignature",
      "type": "error"
    },
    {
      "inputs": [
        {
          "internalType": "address",
          "name": "signer",
          "type": "address"
        },
        {
          "internalType": "address",
          "name": "owner",
          "type": "address"
        }
      ],
      "name": "ERC2612InvalidSigner",
      "type": "error"
    },
    {
      "inputs": [
        {
          "internalType": "address",
          "name": "account",
          "type": "address"
        },
        {
          "internalType": "uint256",
          "name": "currentNonce",
          "type": "uint256"
        }
      ],
      "name": "InvalidAccountNonce",
      "type": "error"
    },
    {
      "inputs": [],
      "name": "InvalidShortString",
      "type": "error"
    },
    {
      "inputs": [
        {
          "internalType": "address",
          "name": "owner",
          "type": "address"
        }
      ],
      "name": "OwnableInvalidOwner",
      "type": "error"
    },
    {
      "inputs": [
        {
          "internalType": "address",
          "name": "account",
          "type": "address"
        }
      ],
      "name": "OwnableUnauthorizedAccount",
      "type": "error"
    },
    {
      "inputs": [
        {
          "internalType": "string",
          "name": "str",
          "type": "string"
        }
      ],
      "name": "StringTooLong",
      "type": "error"
    },
    {
      "anonymous": false,
      "inputs": [
        {
          "indexed": true,
          "internalType": "address",
          "name": "owner",
          "type": "address"
        },
        {
          "indexed": true,
          "internalType": "address",
          "name": "spender",
          "type": "address"
        },
        {
          "indexed": false,
          "internalType": "uint256",
          "name": "value",
          "type": "uint256"
        }
      ],
      "name": "Approval",
      "type": "event"
    },
    {
      "anonymous": false,
      "inputs": [],
      "name": "EIP712DomainChanged",
      "type": "event"
    },
    {
      "anonymous": false,
      "inputs": [
        {
          "indexed": true,
          "internalType": "address",
          "name": "previousOwner",
          "type": "address"
        },
        {
          "indexed": true,
          "internalType": "address",
          "name": "newOwner",
          "type": "address"
        }
      ],
      "name": "OwnershipTransferred",
      "type": "event"
    },
    {
      "anonymous": false,
      "inputs": [
        {
          "indexed": true,
          "internalType": "address",
          "name": "from",
          "type": "address"
        },
        {
          "indexed": true,
          "internalType": "address",
          "name": "to",
          "type": "address"
        },
        {
          "indexed": false,
          "internalType": "uint256",
          "name": "value",
          "type": "uint256"
        }
      ],
      "name": "Transfer",
      "type": "event"
    },
    {
      "inputs": [],
      "name": "DOMAIN_SEPARATOR",
      "outputs": [
        {
          "internalType": "bytes32",
          "name": "",
          "type": "bytes32"
        }
      ],
      "stateMutability": "view",
      "type": "function"
    },
    {
      "inputs": [
        {
          "internalType": "address",
          "name": "owner",
          "type": "address"
        },
        {
          "internalType": "address",
          "name": "spender",
          "type": "address"
        }
      ],
      "name": "allowance",
      "outputs": [
        {
          "internalType": "uint256",
          "name": "",
          "type": "uint256"
        }
      ],
      "stateMutability": "view",
      "type": "function"
    },
    {
      "inputs": [
        {
          "internalType": "address",
          "name": "spender",
          "type": "address"
        },
        {
          "internalType": "uint256",
          "name": "value",
          "type": "uint256"
        }
      ],
      "name": "approve",
      "outputs": [
        {
          "internalType": "bool",
          "name": "",
          "type": "bool"
        }
      ],
      "stateMutability": "nonpayable",
      "type": "function"
    },
    {
      "inputs": [
        {
          "internalType": "address",
          "name": "account",
          "type": "address"
        }
      ],
      "name": "balanceOf",
      "outputs": [
        {
          "internalType": "uint256",
          "name": "",
          "type": "uint256"
        }
      ],
      "stateMutability": "view",
      "type": "function"
    },
    {
      "inputs": [],
      "name": "buy",
      "outputs": [],
      "stateMutability": "payable",
      "type": "function"
    },
    {
      "inputs": [],
      "name": "decimals",
      "outputs": [
        {
          "internalType": "uint8",
          "name": "",
          "type": "uint8"
        }
      ],
      "stateMutability": "view",
      "type": "function"
    },
    {
      "inputs": [],
      "name": "eip712Domain",
      "outputs": [
        {
          "internalType": "bytes1",
          "name": "fields",
          "type": "bytes1"
        },
        {
          "internalType": "string",
          "name": "name",
          "type": "string"
        },
        {
          "internalType": "string",
          "name": "version",
          "type": "string"
        },
        {
          "internalType": "uint256",
          "name": "chainId",
          "type": "uint256"
        },
        {
          "internalType": "address",
          "name": "verifyingContract",
          "type": "address"
        },
        {
          "internalType": "bytes32",
          "name": "salt",
          "type": "bytes32"
        },
        {
          "internalType": "uint256[]",
          "name": "extensions",
          "type": "uint256[]"
        }
      ],
      "stateMutability": "view",
      "type": "function"
    },
    {
      "inputs": [
        {
          "internalType": "uint256",
          "name": "value",
          "type": "uint256"
        }
      ],
      "name": "getCommission",
      "outputs": [
        {
          "internalType": "uint256",
          "name": "",
          "type": "uint256"
        }
      ],
      "stateMutability": "pure",
      "type": "function"
    },
    {
      "inputs": [],
      "name": "name",
      "outputs": [
        {
          "internalType": "string",
          "name": "",
          "type": "string"
        }
      ],
      "stateMutability": "view",
      "type": "function"
    },
    {
      "inputs": [
        {
          "internalType": "address",
          "name": "owner",
          "type": "address"
        }
      ],
      "name": "nonces",
      "outputs": [
        {
          "internalType": "uint256",
          "name": "",
          "type": "uint256"
        }
      ],
      "stateMutability": "view",
      "type": "function"
    },
    {
      "inputs": [],
      "name": "owner",
      "outputs": [
        {
          "internalType": "address",
          "name": "",
          "type": "address"
        }
      ],
      "stateMutability": "view",
      "type": "function"
    },
    {
      "inputs": [
        {
          "internalType": "address",
          "name": "owner",
          "type": "address"
        },
        {
          "internalType": "address",
          "name": "spender",
          "type": "address"
        },
        {
          "internalType": "uint256",
          "name": "value",
          "type": "uint256"
        },
        {
          "internalType": "uint256",
          "name": "deadline",
          "type": "uint256"
        },
        {
          "internalType": "uint8",
          "name": "v",
          "type": "uint8"
        },
        {
          "internalType": "bytes32",
          "name": "r",
          "type": "bytes32"
        },
        {
          "internalType": "bytes32",
          "name": "s",
          "type": "bytes32"
        }
      ],
      "name": "permit",
      "outputs": [],
      "stateMutability": "nonpayable",
      "type": "function"
    },
    {
      "inputs": [],
      "name": "renounceOwnership",
      "outputs": [],
      "stateMutability": "nonpayable",
      "type": "function"
    },
    {
      "inputs": [],
      "name": "symbol",
      "outputs": [
        {
          "internalType": "string",
          "name": "",
          "type": "string"
        }
      ],
      "stateMutability": "view",
      "type": "function"
    },
    {
      "inputs": [],
      "name": "totalSupply",
      "outputs": [
        {
          "internalType": "uint256",
          "name": "",
          "type": "uint256"
        }
      ],
      "stateMutability": "view",
      "type": "function"
    },
    {
      "inputs": [
        {
          "internalType": "address",
          "name": "getter",
          "type": "address"
        },
        {
          "internalType": "uint256",
          "name": "value",
          "type": "uint256"
        }
      ],
      "name": "transfer",
      "outputs": [
        {
          "internalType": "bool",
          "name": "",
          "type": "bool"
        }
      ],
      "stateMutability": "nonpayable",
      "type": "function"
    },
    {
      "inputs": [
        {
          "internalType": "address",
          "name": "sender",
          "type": "address"
        },
        {
          "internalType": "address",
          "name": "getter",
          "type": "address"
        },
        {
          "internalType": "uint256",
          "name": "value",
          "type": "uint256"
        }
      ],
      "name": "transferFrom",
      "outputs": [
        {
          "internalType": "bool",
          "name": "",
          "type": "bool"
        }
      ],
      "stateMutability": "nonpayable",
      "type": "function"
    },
    {
      "inputs": [
        {
          "internalType": "address",
          "name": "newOwner",
          "type": "address"
        }
      ],
      "name": "transferOwnership",
      "outputs": [],
      "stateMutability": "nonpayable",
      "type": "function"
    }
  ],
  "bytecode": "0x61016060405234801561001157600080fd5b5060405161329938038061329983398181016040528101906100339190610794565b806040518060400160405280600781526020017f4d79546f6b656e00000000000000000000000000000000000000000000000000815250806040518060400160405280600181526020017f31000000000000000000000000000000000000000000000000000000000000008152506040518060400160405280600781526020017f4d79546f6b656e000000000000000000000000000000000000000000000000008152506040518060400160405280600381526020017f4d544b0000000000000000000000000000000000000000000000000000000000815250816003908161011c9190610a11565b50806004908161012c9190610a11565b50505061014360058361029860201b90919060201c565b610120818152505061015f60068261029860201b90919060201c565b6101408181525050818051906020012060e08181525050808051906020012061010081815250504660a0818152505061019c6102e860201b60201c565b608081815250503073ffffffffffffffffffffffffffffffffffffffff1660c08173ffffffffffffffffffffffffffffffffffffffff1681525050505050600073ffffffffffffffffffffffffffffffffffffffff168173ffffffffffffffffffffffffffffffffffffffff160361024c5760006040517f1e4fbdf70000000000000000000000000000000000000000000000000000000081526004016102439190610af2565b60405180910390fd5b61025b8161034360201b60201c565b506102923361026e61040960201b60201c565b600a61027a9190610c7c565b6107e86102879190610cc7565b61041260201b60201c565b50610f48565b60006020835110156102ba576102b38361049a60201b60201c565b90506102e2565b826102ca8361050260201b60201c565b60000190816102d99190610a11565b5060ff60001b90505b92915050565b60007f8b73c3c69bb8fe3d512ecc4cf759cc79239f7b179b0ffacaa9a75d522b39400f60e051610100514630604051602001610328959493929190610d31565b60405160208183030381529060405280519060200120905090565b6000600860009054906101000a900473ffffffffffffffffffffffffffffffffffffffff16905081600860006101000a81548173ffffffffffffffffffffffffffffffffffffffff021916908373ffffffffffffffffffffffffffffffffffffffff1602179055508173ffffffffffffffffffffffffffffffffffffffff168173ffffffffffffffffffffffffffffffffffffffff167f8be0079c531659141344cd1fd0a4f28419497f9722a3daafe3b4186f6b6457e060405160405180910390a35050565b60006012905090565b600073ffffffffffffffffffffffffffffffffffffffff168273ffffffffffffffffffffffffffffffffffffffff16036104845760006040517fec442f0500000000000000000000000000000000000000000000000000000000815260040161047b9190610af2565b60405180910390fd5b6104966000838361050c60201b60201c565b5050565b600080829050601f815111156104e757826040517f305a27a90000000000000000000000000000000000000000000000000000000081526004016104de9190610e09565b60405180910390fd5b8051816104f390610e5b565b60001c1760001b915050919050565b6000819050919050565b600073ffffffffffffffffffffffffffffffffffffffff168373ffffffffffffffffffffffffffffffffffffffff160361055e5780600260008282546105529190610ec2565b92505081905550610631565b60008060008573ffffffffffffffffffffffffffffffffffffffff1673ffffffffffffffffffffffffffffffffffffffff168152602001908152602001600020549050818110156105ea578381836040517fe450d38c0000000000000000000000000000000000000000000000000000000081526004016105e193929190610ef6565b60405180910390fd5b8181036000808673ffffffffffffffffffffffffffffffffffffffff1673ffffffffffffffffffffffffffffffffffffffff16815260200190815260200160002081905550505b600073ffffffffffffffffffffffffffffffffffffffff168273ffffffffffffffffffffffffffffffffffffffff160361067a57806002600082825403925050819055506106c7565b806000808473ffffffffffffffffffffffffffffffffffffffff1673ffffffffffffffffffffffffffffffffffffffff168152602001908152602001600020600082825401925050819055505b8173ffffffffffffffffffffffffffffffffffffffff168373ffffffffffffffffffffffffffffffffffffffff167fddf252ad1be2c89b69c2b068fc378daa952ba7f163c4a11628f55a4df523b3ef836040516107249190610f2d565b60405180910390a3505050565b600080fd5b600073ffffffffffffffffffffffffffffffffffffffff82169050919050565b600061076182610736565b9050919050565b61077181610756565b811461077c57600080fd5b50565b60008151905061078e81610768565b92915050565b6000602082840312156107aa576107a9610731565b5b60006107b88482850161077f565b91505092915050565b600081519050919050565b7f4e487b7100000000000000000000000000000000000000000000000000000000600052604160045260246000fd5b7f4e487b7100000000000000000000000000000000000000000000000000000000600052602260045260246000fd5b6000600282049050600182168061084257607f821691505b602082108103610855576108546107fb565b5b50919050565b60008190508160005260206000209050919050565b60006020601f8301049050919050565b600082821b905092915050565b6000600883026108bd7fffffffffffffffffffffffffffffffffffffffffffffffffffffffffffffffff82610880565b6108c78683610880565b95508019841693508086168417925050509392505050565b6000819050919050565b6000819050919050565b600061090e610909610904846108df565b6108e9565b6108df565b9050919050565b6000819050919050565b610928836108f3565b61093c61093482610915565b84845461088d565b825550505050565b600090565b610951610944565b61095c81848461091f565b505050565b5b8181101561098057610975600082610949565b600181019050610962565b5050565b601f8211156109c5576109968161085b565b61099f84610870565b810160208510156109ae578190505b6109c26109ba85610870565b830182610961565b50505b505050565b600082821c905092915050565b60006109e8600019846008026109ca565b1980831691505092915050565b6000610a0183836109d7565b9150826002028217905092915050565b610a1a826107c1565b67ffffffffffffffff811115610a3357610a326107cc565b5b610a3d825461082a565b610a48828285610984565b600060209050601f831160018114610a7b5760008415610a69578287015190505b610a7385826109f5565b865550610adb565b601f198416610a898661085b565b60005b82811015610ab157848901518255600182019150602085019450602081019050610a8c565b86831015610ace5784890151610aca601f8916826109d7565b8355505b6001600288020188555050505b505050505050565b610aec81610756565b82525050565b6000602082019050610b076000830184610ae3565b92915050565b7f4e487b7100000000000000000000000000000000000000000000000000000000600052601160045260246000fd5b60008160011c9050919050565b6000808291508390505b6001851115610b9357808604811115610b6f57610b6e610b0d565b5b6001851615610b7e5780820291505b8081029050610b8c85610b3c565b9450610b53565b94509492505050565b600082610bac5760019050610c68565b81610bba5760009050610c68565b8160018114610bd05760028114610bda57610c09565b6001915050610c68565b60ff841115610bec57610beb610b0d565b5b8360020a915084821115610c0357610c02610b0d565b5b50610c68565b5060208310610133831016604e8410600b8410161715610c3e5782820a905083811115610c3957610c38610b0d565b5b610c68565b610c4b8484846001610b49565b92509050818404811115610c6257610c61610b0d565b5b81810290505b9392505050565b600060ff82169050919050565b6000610c87826108df565b9150610c9283610c6f565b9250610cbf7fffffffffffffffffffffffffffffffffffffffffffffffffffffffffffffffff8484610b9c565b905092915050565b6000610cd2826108df565b9150610cdd836108df565b9250828202610ceb816108df565b91508282048414831517610d0257610d01610b0d565b5b5092915050565b6000819050919050565b610d1c81610d09565b82525050565b610d2b816108df565b82525050565b600060a082019050610d466000830188610d13565b610d536020830187610d13565b610d606040830186610d13565b610d6d6060830185610d22565b610d7a6080830184610ae3565b9695505050505050565b600082825260208201905092915050565b60005b83811015610db3578082015181840152602081019050610d98565b60008484015250505050565b6000601f19601f8301169050919050565b6000610ddb826107c1565b610de58185610d84565b9350610df5818560208601610d95565b610dfe81610dbf565b840191505092915050565b60006020820190508181036000830152610e238184610dd0565b905092915050565b600081519050919050565b6000819050602082019050919050565b6000610e528251610d09565b80915050919050565b6000610e6682610e2b565b82610e7084610e36565b9050610e7b81610e46565b92506020821015610ebb57610eb67fffffffffffffffffffffffffffffffffffffffffffffffffffffffffffffffff83602003600802610880565b831692505b5050919050565b6000610ecd826108df565b9150610ed8836108df565b9250828201905080821115610ef057610eef610b0d565b5b92915050565b6000606082019050610f0b6000830186610ae3565b610f186020830185610d22565b610f256040830184610d22565b949350505050565b6000602082019050610f426000830184610d22565b92915050565b60805160a05160c05160e0516101005161012051610140516122f7610fa26000396000610f4301526000610f08015260006114580152600061143701526000610cb601526000610d0c01526000610d3501526122f76000f3fe6080604052600436106101095760003560e01c80637ecebe0011610095578063a6f2ae3a11610064578063a6f2ae3a14610389578063a9059cbb14610393578063d505accf146103d0578063dd62ed3e146103f9578063f2fde38b1461043657610109565b80637ecebe00146102c557806384b0196e146103025780638da5cb5b1461033357806395d89b411461035e57610109565b8063313ce567116100dc578063313ce567146101de5780633644e515146102095780633c8bccd91461023457806370a0823114610271578063715018a6146102ae57610109565b806306fdde031461010e578063095ea7b31461013957806318160ddd1461017657806323b872dd146101a1575b600080fd5b34801561011a57600080fd5b5061012361045f565b6040516101309190611945565b60405180910390f35b34801561014557600080fd5b50610160600480360381019061015b9190611a00565b6104f1565b60405161016d9190611a5b565b60405180910390f35b34801561018257600080fd5b5061018b610514565b6040516101989190611a85565b60405180910390f35b3480156101ad57600080fd5b506101c860048036038101906101c39190611aa0565b61051e565b6040516101d59190611a5b565b60405180910390f35b3480156101ea57600080fd5b506101f361056d565b6040516102009190611b0f565b60405180910390f35b34801561021557600080fd5b5061021e610576565b60405161022b9190611b43565b60405180910390f35b34801561024057600080fd5b5061025b60048036038101906102569190611b5e565b610585565b6040516102689190611a85565b60405180910390f35b34801561027d57600080fd5b5061029860048036038101906102939190611b8b565b6105a7565b6040516102a59190611a85565b60405180910390f35b3480156102ba57600080fd5b506102c36105ef565b005b3480156102d157600080fd5b506102ec60048036038101906102e79190611b8b565b610603565b6040516102f99190611a85565b60405180910390f35b34801561030e57600080fd5b50610317610615565b60405161032a9796959493929190611cc0565b60405180910390f35b34801561033f57600080fd5b506103486106bf565b6040516103559190611d44565b60405180910390f35b34801561036a57600080fd5b506103736106e9565b6040516103809190611945565b60405180910390f35b61039161077b565b005b34801561039f57600080fd5b506103ba60048036038101906103b59190611a00565b610824565b6040516103c79190611a5b565b60405180910390f35b3480156103dc57600080fd5b506103f760048036038101906103f29190611db7565b610839565b005b34801561040557600080fd5b50610420600480360381019061041b9190611e59565b610981565b60405161042d9190611a85565b60405180910390f35b34801561044257600080fd5b5061045d60048036038101906104589190611b8b565b610a08565b005b60606003805461046e90611ec8565b80601f016020809104026020016040519081016040528092919081815260200182805461049a90611ec8565b80156104e75780601f106104bc576101008083540402835291602001916104e7565b820191906000526020600020905b8154815290600101906020018083116104ca57829003601f168201915b5050505050905090565b6000806104fc610a8e565b9050610509818585610a96565b600191505092915050565b6000600254905090565b60006105328461052c610a8e565b84610aa8565b610550848461054085610585565b8561054b9190611f28565b610b3c565b6105628461055d84610585565b610c30565b600190509392505050565b60006012905090565b6000610580610cb2565b905090565b60006064600a836105969190611f5c565b6105a09190611fcd565b9050919050565b60008060008373ffffffffffffffffffffffffffffffffffffffff1673ffffffffffffffffffffffffffffffffffffffff168152602001908152602001600020549050919050565b6105f7610d69565b6106016000610df0565b565b600061060e82610eb6565b9050919050565b600060608060008060006060610629610eff565b610631610f3a565b46306000801b600067ffffffffffffffff81111561065257610651611ffe565b5b6040519080825280602002602001820160405280156106805781602001602082028036833780820191505090505b507f0f00000000000000000000000000000000000000000000000000000000000000959493929190965096509650965096509650965090919293949596565b6000600860009054906101000a900473ffffffffffffffffffffffffffffffffffffffff16905090565b6060600480546106f890611ec8565b80601f016020809104026020016040519081016040528092919081815260200182805461072490611ec8565b80156107715780601f1061074657610100808354040283529160200191610771565b820191906000526020600020905b81548152906001019060200180831161075457829003601f168201915b5050505050905090565b600034116107be576040517f08c379a00000000000000000000000000000000000000000000000000000000081526004016107b590612079565b60405180910390fd5b346107cf6107ca6106bf565b6105a7565b1015610810576040517f08c379a0000000000000000000000000000000000000000000000000000000008152600401610807906120e5565b60405180910390fd5b61082261081b6106bf565b3334610b3c565b565b600061083133848461051e565b905092915050565b8342111561087e57836040517f627913020000000000000000000000000000000000000000000000000000000081526004016108759190611a85565b60405180910390fd5b60007f6e71edae12b1b97f4d1f60370fef10105fa2faae0126114a169c64845d6126c98888886108ad8c610f75565b896040516020016108c396959493929190612105565b60405160208183030381529060405280519060200120905060006108e682610fcc565b905060006108f682878787610fe6565b90508973ffffffffffffffffffffffffffffffffffffffff168173ffffffffffffffffffffffffffffffffffffffff161461096a57808a6040517f4b800e46000000000000000000000000000000000000000000000000000000008152600401610961929190612166565b60405180910390fd5b6109758a8a8a610a96565b50505050505050505050565b6000600160008473ffffffffffffffffffffffffffffffffffffffff1673ffffffffffffffffffffffffffffffffffffffff16815260200190815260200160002060008373ffffffffffffffffffffffffffffffffffffffff1673ffffffffffffffffffffffffffffffffffffffff16815260200190815260200160002054905092915050565b610a10610d69565b600073ffffffffffffffffffffffffffffffffffffffff168173ffffffffffffffffffffffffffffffffffffffff1603610a825760006040517f1e4fbdf7000000000000000000000000000000000000000000000000000000008152600401610a799190611d44565b60405180910390fd5b610a8b81610df0565b50565b600033905090565b610aa38383836001611016565b505050565b6000610ab48484610981565b90507fffffffffffffffffffffffffffffffffffffffffffffffffffffffffffffffff8114610b365781811015610b26578281836040517ffb8f41b2000000000000000000000000000000000000000000000000000000008152600401610b1d9392919061218f565b60405180910390fd5b610b3584848484036000611016565b5b50505050565b600073ffffffffffffffffffffffffffffffffffffffff168373ffffffffffffffffffffffffffffffffffffffff1603610bae5760006040517f96c6fd1e000000000000000000000000000000000000000000000000000000008152600401610ba59190611d44565b60405180910390fd5b600073ffffffffffffffffffffffffffffffffffffffff168273ffffffffffffffffffffffffffffffffffffffff1603610c205760006040517fec442f05000000000000000000000000000000000000000000000000000000008152600401610c179190611d44565b60405180910390fd5b610c2b8383836111ed565b505050565b600073ffffffffffffffffffffffffffffffffffffffff168273ffffffffffffffffffffffffffffffffffffffff1603610ca25760006040517f96c6fd1e000000000000000000000000000000000000000000000000000000008152600401610c999190611d44565b60405180910390fd5b610cae826000836111ed565b5050565b60007f000000000000000000000000000000000000000000000000000000000000000073ffffffffffffffffffffffffffffffffffffffff163073ffffffffffffffffffffffffffffffffffffffff16148015610d2e57507f000000000000000000000000000000000000000000000000000000000000000046145b15610d5b577f00000000000000000000000000000000000000000000000000000000000000009050610d66565b610d63611412565b90505b90565b610d71610a8e565b73ffffffffffffffffffffffffffffffffffffffff16610d8f6106bf565b73ffffffffffffffffffffffffffffffffffffffff1614610dee57610db2610a8e565b6040517f118cdaa7000000000000000000000000000000000000000000000000000000008152600401610de59190611d44565b60405180910390fd5b565b6000600860009054906101000a900473ffffffffffffffffffffffffffffffffffffffff16905081600860006101000a81548173ffffffffffffffffffffffffffffffffffffffff021916908373ffffffffffffffffffffffffffffffffffffffff1602179055508173ffffffffffffffffffffffffffffffffffffffff168173ffffffffffffffffffffffffffffffffffffffff167f8be0079c531659141344cd1fd0a4f28419497f9722a3daafe3b4186f6b6457e060405160405180910390a35050565b6000600760008373ffffffffffffffffffffffffffffffffffffffff1673ffffffffffffffffffffffffffffffffffffffff168152602001908152602001600020549050919050565b6060610f3560057f00000000000000000000000000000000000000000000000000000000000000006114a890919063ffffffff16565b905090565b6060610f7060067f00000000000000000000000000000000000000000000000000000000000000006114a890919063ffffffff16565b905090565b6000600760008373ffffffffffffffffffffffffffffffffffffffff1673ffffffffffffffffffffffffffffffffffffffff1681526020019081526020016000206000815480929190600101919050559050919050565b6000610fdf610fd9610cb2565b83611558565b9050919050565b600080600080610ff888888888611599565b925092509250611008828261168d565b829350505050949350505050565b600073ffffffffffffffffffffffffffffffffffffffff168473ffffffffffffffffffffffffffffffffffffffff16036110885760006040517fe602df0500000000000000000000000000000000000000000000000000000000815260040161107f9190611d44565b60405180910390fd5b600073ffffffffffffffffffffffffffffffffffffffff168373ffffffffffffffffffffffffffffffffffffffff16036110fa5760006040517f94280d620000000000000000000000000000000000000000000000000000000081526004016110f19190611d44565b60405180910390fd5b81600160008673ffffffffffffffffffffffffffffffffffffffff1673ffffffffffffffffffffffffffffffffffffffff16815260200190815260200160002060008573ffffffffffffffffffffffffffffffffffffffff1673ffffffffffffffffffffffffffffffffffffffff1681526020019081526020016000208190555080156111e7578273ffffffffffffffffffffffffffffffffffffffff168473ffffffffffffffffffffffffffffffffffffffff167f8c5be1e5ebec7d5bd14f71427d1e84f3dd0314c0f7b2291e5b200ac8c7c3b925846040516111de9190611a85565b60405180910390a35b50505050565b600073ffffffffffffffffffffffffffffffffffffffff168373ffffffffffffffffffffffffffffffffffffffff160361123f57806002600082825461123391906121c6565b92505081905550611312565b60008060008573ffffffffffffffffffffffffffffffffffffffff1673ffffffffffffffffffffffffffffffffffffffff168152602001908152602001600020549050818110156112cb578381836040517fe450d38c0000000000000000000000000000000000000000000000000000000081526004016112c29392919061218f565b60405180910390fd5b8181036000808673ffffffffffffffffffffffffffffffffffffffff1673ffffffffffffffffffffffffffffffffffffffff16815260200190815260200160002081905550505b600073ffffffffffffffffffffffffffffffffffffffff168273ffffffffffffffffffffffffffffffffffffffff160361135b57806002600082825403925050819055506113a8565b806000808473ffffffffffffffffffffffffffffffffffffffff1673ffffffffffffffffffffffffffffffffffffffff168152602001908152602001600020600082825401925050819055505b8173ffffffffffffffffffffffffffffffffffffffff168373ffffffffffffffffffffffffffffffffffffffff167fddf252ad1be2c89b69c2b068fc378daa952ba7f163c4a11628f55a4df523b3ef836040516114059190611a85565b60405180910390a3505050565b60007f8b73c3c69bb8fe3d512ecc4cf759cc79239f7b179b0ffacaa9a75d522b39400f7f00000000000000000000000000000000000000000000000000000000000000007f0000000000000000000000000000000000000000000000000000000000000000463060405160200161148d9594939291906121fa565b60405160208183030381529060405280519060200120905090565b606060ff60001b83146114c5576114be836117f1565b9050611552565b8180546114d190611ec8565b80601f01602080910402602001604051908101604052809291908181526020018280546114fd90611ec8565b801561154a5780601f1061151f5761010080835404028352916020019161154a565b820191906000526020600020905b81548152906001019060200180831161152d57829003601f168201915b505050505090505b92915050565b60006040517f190100000000000000000000000000000000000000000000000000000000000081528360028201528260228201526042812091505092915050565b60008060007f7fffffffffffffffffffffffffffffff5d576e7357a4501ddfe92f46681b20a08460001c11156115d9576000600385925092509250611683565b6000600188888888604051600081526020016040526040516115fe949392919061224d565b6020604051602081039080840390855afa158015611620573d6000803e3d6000fd5b505050602060405103519050600073ffffffffffffffffffffffffffffffffffffffff168173ffffffffffffffffffffffffffffffffffffffff160361167457600060016000801b93509350935050611683565b8060008060001b935093509350505b9450945094915050565b600060038111156116a1576116a0612292565b5b8260038111156116b4576116b3612292565b5b03156117ed57600160038111156116ce576116cd612292565b5b8260038111156116e1576116e0612292565b5b03611718576040517ff645eedf00000000000000000000000000000000000000000000000000000000815260040160405180910390fd5b6002600381111561172c5761172b612292565b5b82600381111561173f5761173e612292565b5b03611784578060001c6040517ffce698f700000000000000000000000000000000000000000000000000000000815260040161177b9190611a85565b60405180910390fd5b60038081111561179757611796612292565b5b8260038111156117aa576117a9612292565b5b036117ec57806040517fd78bce0c0000000000000000000000000000000000000000000000000000000081526004016117e39190611b43565b60405180910390fd5b5b5050565b606060006117fe83611865565b90506000602067ffffffffffffffff81111561181d5761181c611ffe565b5b6040519080825280601f01601f19166020018201604052801561184f5781602001600182028036833780820191505090505b5090508181528360208201528092505050919050565b60008060ff8360001c169050601f8111156118ac576040517fb3512b0c00000000000000000000000000000000000000000000000000000000815260040160405180910390fd5b80915050919050565b600081519050919050565b600082825260208201905092915050565b60005b838110156118ef5780820151818401526020810190506118d4565b60008484015250505050565b6000601f19601f8301169050919050565b6000611917826118b5565b61192181856118c0565b93506119318185602086016118d1565b61193a816118fb565b840191505092915050565b6000602082019050818103600083015261195f818461190c565b905092915050565b600080fd5b600073ffffffffffffffffffffffffffffffffffffffff82169050919050565b60006119978261196c565b9050919050565b6119a78161198c565b81146119b257600080fd5b50565b6000813590506119c48161199e565b92915050565b6000819050919050565b6119dd816119ca565b81146119e857600080fd5b50565b6000813590506119fa816119d4565b92915050565b60008060408385031215611a1757611a16611967565b5b6000611a25858286016119b5565b9250506020611a36858286016119eb565b9150509250929050565b60008115159050919050565b611a5581611a40565b82525050565b6000602082019050611a706000830184611a4c565b92915050565b611a7f816119ca565b82525050565b6000602082019050611a9a6000830184611a76565b92915050565b600080600060608486031215611ab957611ab8611967565b5b6000611ac7868287016119b5565b9350506020611ad8868287016119b5565b9250506040611ae9868287016119eb565b9150509250925092565b600060ff82169050919050565b611b0981611af3565b82525050565b6000602082019050611b246000830184611b00565b92915050565b6000819050919050565b611b3d81611b2a565b82525050565b6000602082019050611b586000830184611b34565b92915050565b600060208284031215611b7457611b73611967565b5b6000611b82848285016119eb565b91505092915050565b600060208284031215611ba157611ba0611967565b5b6000611baf848285016119b5565b91505092915050565b60007fff0000000000000000000000000000000000000000000000000000000000000082169050919050565b611bed81611bb8565b82525050565b611bfc8161198c565b82525050565b600081519050919050565b600082825260208201905092915050565b6000819050602082019050919050565b611c37816119ca565b82525050565b6000611c498383611c2e565b60208301905092915050565b6000602082019050919050565b6000611c6d82611c02565b611c778185611c0d565b9350611c8283611c1e565b8060005b83811015611cb3578151611c9a8882611c3d565b9750611ca583611c55565b925050600181019050611c86565b5085935050505092915050565b600060e082019050611cd5600083018a611be4565b8181036020830152611ce7818961190c565b90508181036040830152611cfb818861190c565b9050611d0a6060830187611a76565b611d176080830186611bf3565b611d2460a0830185611b34565b81810360c0830152611d368184611c62565b905098975050505050505050565b6000602082019050611d596000830184611bf3565b92915050565b611d6881611af3565b8114611d7357600080fd5b50565b600081359050611d8581611d5f565b92915050565b611d9481611b2a565b8114611d9f57600080fd5b50565b600081359050611db181611d8b565b92915050565b600080600080600080600060e0888a031215611dd657611dd5611967565b5b6000611de48a828b016119b5565b9750506020611df58a828b016119b5565b9650506040611e068a828b016119eb565b9550506060611e178a828b016119eb565b9450506080611e288a828b01611d76565b93505060a0611e398a828b01611da2565b92505060c0611e4a8a828b01611da2565b91505092959891949750929550565b60008060408385031215611e7057611e6f611967565b5b6000611e7e858286016119b5565b9250506020611e8f858286016119b5565b9150509250929050565b7f4e487b7100000000000000000000000000000000000000000000000000000000600052602260045260246000fd5b60006002820490506001821680611ee057607f821691505b602082108103611ef357611ef2611e99565b5b50919050565b7f4e487b7100000000000000000000000000000000000000000000000000000000600052601160045260246000fd5b6000611f33826119ca565b9150611f3e836119ca565b9250828203905081811115611f5657611f55611ef9565b5b92915050565b6000611f67826119ca565b9150611f72836119ca565b9250828202611f80816119ca565b91508282048414831517611f9757611f96611ef9565b5b5092915050565b7f4e487b7100000000000000000000000000000000000000000000000000000000600052601260045260246000fd5b6000611fd8826119ca565b9150611fe3836119ca565b925082611ff357611ff2611f9e565b5b828204905092915050565b7f4e487b7100000000000000000000000000000000000000000000000000000000600052604160045260246000fd5b7f596f75206e65656420746f2073656e6420657468657200000000000000000000600082015250565b60006120636016836118c0565b915061206e8261202d565b602082019050919050565b6000602082019050818103600083015261209281612056565b9050919050565b7f546f6f2062696720657468657220636f756e7400000000000000000000000000600082015250565b60006120cf6013836118c0565b91506120da82612099565b602082019050919050565b600060208201905081810360008301526120fe816120c2565b9050919050565b600060c08201905061211a6000830189611b34565b6121276020830188611bf3565b6121346040830187611bf3565b6121416060830186611a76565b61214e6080830185611a76565b61215b60a0830184611a76565b979650505050505050565b600060408201905061217b6000830185611bf3565b6121886020830184611bf3565b9392505050565b60006060820190506121a46000830186611bf3565b6121b16020830185611a76565b6121be6040830184611a76565b949350505050565b60006121d1826119ca565b91506121dc836119ca565b92508282019050808211156121f4576121f3611ef9565b5b92915050565b600060a08201905061220f6000830188611b34565b61221c6020830187611b34565b6122296040830186611b34565b6122366060830185611a76565b6122436080830184611bf3565b9695505050505050565b60006080820190506122626000830187611b34565b61226f6020830186611b00565b61227c6040830185611b34565b6122896060830184611b34565b95945050505050565b7f4e487b7100000000000000000000000000000000000000000000000000000000600052602160045260246000fdfea264697066735822122049805c69beec469edf9b06f9a40d1c35bd84e07afcb23fabbfa376d563ab15e464736f6c634300081b0033",
  "linkReferences": {},
  "deployedLinkReferences": {}
}