{
  "_format": "hh-sol-artifact-1",
  "contractName": "MyToken1155",
  "sourceName": "contracts/ERC1155.sol",
  "abi": [
    {
      "inputs": [
        {
          "internalType": "address",
          "name": "initialOwner",
          "type": "address"
        }
      ],
      "stateMutability": "nonpayable",
      "type": "constructor"
    },
    {
      "inputs": [
        {
          "internalType": "address",
          "name": "sender",
          "type": "address"
        },
        {
          "internalType": "uint256",
          "name": "balance",
          "type": "uint256"
        },
        {
          "internalType": "uint256",
          "name": "needed",
          "type": "uint256"
        },
        {
          "internalType": "uint256",
          "name": "tokenId",
          "type": "uint256"
        }
      ],
      "name": "ERC1155InsufficientBalance",
      "type": "error"
    },
    {
      "inputs": [
        {
          "internalType": "address",
          "name": "approver",
          "type": "address"
        }
      ],
      "name": "ERC1155InvalidApprover",
      "type": "error"
    },
    {
      "inputs": [
        {
          "internalType": "uint256",
          "name": "idsLength",
          "type": "uint256"
        },
        {
          "internalType": "uint256",
          "name": "valuesLength",
          "type": "uint256"
        }
      ],
      "name": "ERC1155InvalidArrayLength",
      "type": "error"
    },
    {
      "inputs": [
        {
          "internalType": "address",
          "name": "operator",
          "type": "address"
        }
      ],
      "name": "ERC1155InvalidOperator",
      "type": "error"
    },
    {
      "inputs": [
        {
          "internalType": "address",
          "name": "receiver",
          "type": "address"
        }
      ],
      "name": "ERC1155InvalidReceiver",
      "type": "error"
    },
    {
      "inputs": [
        {
          "internalType": "address",
          "name": "sender",
          "type": "address"
        }
      ],
      "name": "ERC1155InvalidSender",
      "type": "error"
    },
    {
      "inputs": [
        {
          "internalType": "address",
          "name": "operator",
          "type": "address"
        },
        {
          "internalType": "address",
          "name": "owner",
          "type": "address"
        }
      ],
      "name": "ERC1155MissingApprovalForAll",
      "type": "error"
    },
    {
      "inputs": [
        {
          "internalType": "address",
          "name": "owner",
          "type": "address"
        }
      ],
      "name": "OwnableInvalidOwner",
      "type": "error"
    },
    {
      "inputs": [
        {
          "internalType": "address",
          "name": "account",
          "type": "address"
        }
      ],
      "name": "OwnableUnauthorizedAccount",
      "type": "error"
    },
    {
      "anonymous": false,
      "inputs": [
        {
          "indexed": true,
          "internalType": "address",
          "name": "account",
          "type": "address"
        },
        {
          "indexed": true,
          "internalType": "address",
          "name": "operator",
          "type": "address"
        },
        {
          "indexed": false,
          "internalType": "bool",
          "name": "approved",
          "type": "bool"
        }
      ],
      "name": "ApprovalForAll",
      "type": "event"
    },
    {
      "anonymous": false,
      "inputs": [
        {
          "indexed": true,
          "internalType": "address",
          "name": "previousOwner",
          "type": "address"
        },
        {
          "indexed": true,
          "internalType": "address",
          "name": "newOwner",
          "type": "address"
        }
      ],
      "name": "OwnershipTransferred",
      "type": "event"
    },
    {
      "anonymous": false,
      "inputs": [
        {
          "indexed": true,
          "internalType": "address",
          "name": "operator",
          "type": "address"
        },
        {
          "indexed": true,
          "internalType": "address",
          "name": "from",
          "type": "address"
        },
        {
          "indexed": true,
          "internalType": "address",
          "name": "to",
          "type": "address"
        },
        {
          "indexed": false,
          "internalType": "uint256[]",
          "name": "ids",
          "type": "uint256[]"
        },
        {
          "indexed": false,
          "internalType": "uint256[]",
          "name": "values",
          "type": "uint256[]"
        }
      ],
      "name": "TransferBatch",
      "type": "event"
    },
    {
      "anonymous": false,
      "inputs": [
        {
          "indexed": true,
          "internalType": "address",
          "name": "operator",
          "type": "address"
        },
        {
          "indexed": true,
          "internalType": "address",
          "name": "from",
          "type": "address"
        },
        {
          "indexed": true,
          "internalType": "address",
          "name": "to",
          "type": "address"
        },
        {
          "indexed": false,
          "internalType": "uint256",
          "name": "id",
          "type": "uint256"
        },
        {
          "indexed": false,
          "internalType": "uint256",
          "name": "value",
          "type": "uint256"
        }
      ],
      "name": "TransferSingle",
      "type": "event"
    },
    {
      "anonymous": false,
      "inputs": [
        {
          "indexed": false,
          "internalType": "string",
          "name": "value",
          "type": "string"
        },
        {
          "indexed": true,
          "internalType": "uint256",
          "name": "id",
          "type": "uint256"
        }
      ],
      "name": "URI",
      "type": "event"
    },
    {
      "inputs": [
        {
          "internalType": "address",
          "name": "account",
          "type": "address"
        },
        {
          "internalType": "uint256",
          "name": "id",
          "type": "uint256"
        }
      ],
      "name": "balanceOf",
      "outputs": [
        {
          "internalType": "uint256",
          "name": "",
          "type": "uint256"
        }
      ],
      "stateMutability": "view",
      "type": "function"
    },
    {
      "inputs": [
        {
          "internalType": "address[]",
          "name": "accounts",
          "type": "address[]"
        },
        {
          "internalType": "uint256[]",
          "name": "ids",
          "type": "uint256[]"
        }
      ],
      "name": "balanceOfBatch",
      "outputs": [
        {
          "internalType": "uint256[]",
          "name": "",
          "type": "uint256[]"
        }
      ],
      "stateMutability": "view",
      "type": "function"
    },
    {
      "inputs": [
        {
          "internalType": "address",
          "name": "account",
          "type": "address"
        },
        {
          "internalType": "address",
          "name": "operator",
          "type": "address"
        }
      ],
      "name": "isApprovedForAll",
      "outputs": [
        {
          "internalType": "bool",
          "name": "",
          "type": "bool"
        }
      ],
      "stateMutability": "view",
      "type": "function"
    },
    {
      "inputs": [
        {
          "internalType": "address",
          "name": "account",
          "type": "address"
        },
        {
          "internalType": "uint256",
          "name": "id",
          "type": "uint256"
        },
        {
          "internalType": "uint256",
          "name": "amount",
          "type": "uint256"
        },
        {
          "internalType": "bytes",
          "name": "data",
          "type": "bytes"
        }
      ],
      "name": "mint",
      "outputs": [],
      "stateMutability": "nonpayable",
      "type": "function"
    },
    {
      "inputs": [],
      "name": "owner",
      "outputs": [
        {
          "internalType": "address",
          "name": "",
          "type": "address"
        }
      ],
      "stateMutability": "view",
      "type": "function"
    },
    {
      "inputs": [],
      "name": "renounceOwnership",
      "outputs": [],
      "stateMutability": "nonpayable",
      "type": "function"
    },
    {
      "inputs": [
        {
          "internalType": "address",
          "name": "from",
          "type": "address"
        },
        {
          "internalType": "address",
          "name": "to",
          "type": "address"
        },
        {
          "internalType": "uint256[]",
          "name": "ids",
          "type": "uint256[]"
        },
        {
          "internalType": "uint256[]",
          "name": "values",
          "type": "uint256[]"
        },
        {
          "internalType": "bytes",
          "name": "data",
          "type": "bytes"
        }
      ],
      "name": "safeBatchTransferFrom",
      "outputs": [],
      "stateMutability": "nonpayable",
      "type": "function"
    },
    {
      "inputs": [
        {
          "internalType": "address",
          "name": "from",
          "type": "address"
        },
        {
          "internalType": "address",
          "name": "to",
          "type": "address"
        },
        {
          "internalType": "uint256",
          "name": "id",
          "type": "uint256"
        },
        {
          "internalType": "uint256",
          "name": "value",
          "type": "uint256"
        },
        {
          "internalType": "bytes",
          "name": "data",
          "type": "bytes"
        }
      ],
      "name": "safeTransferFrom",
      "outputs": [],
      "stateMutability": "nonpayable",
      "type": "function"
    },
    {
      "inputs": [
        {
          "internalType": "address",
          "name": "operator",
          "type": "address"
        },
        {
          "internalType": "bool",
          "name": "approved",
          "type": "bool"
        }
      ],
      "name": "setApprovalForAll",
      "outputs": [],
      "stateMutability": "nonpayable",
      "type": "function"
    },
    {
      "inputs": [
        {
          "internalType": "string",
          "name": "newuri",
          "type": "string"
        }
      ],
      "name": "setURI",
      "outputs": [],
      "stateMutability": "nonpayable",
      "type": "function"
    },
    {
      "inputs": [
        {
          "internalType": "bytes4",
          "name": "interfaceId",
          "type": "bytes4"
        }
      ],
      "name": "supportsInterface",
      "outputs": [
        {
          "internalType": "bool",
          "name": "",
          "type": "bool"
        }
      ],
      "stateMutability": "view",
      "type": "function"
    },
    {
      "inputs": [
        {
          "internalType": "address",
          "name": "newOwner",
          "type": "address"
        }
      ],
      "name": "transferOwnership",
      "outputs": [],
      "stateMutability": "nonpayable",
      "type": "function"
    },
    {
      "inputs": [
        {
          "internalType": "uint256",
          "name": "",
          "type": "uint256"
        }
      ],
      "name": "uri",
      "outputs": [
        {
          "internalType": "string",
          "name": "",
          "type": "string"
        }
      ],
      "stateMutability": "view",
      "type": "function"
    }
  ],
  "bytecode": "0x608060405234801561001057600080fd5b50604051612c56380380612c5683398181016040528101906100329190610217565b8060405180602001604052806000815250610052816100db60201b60201c565b50600073ffffffffffffffffffffffffffffffffffffffff168173ffffffffffffffffffffffffffffffffffffffff16036100c55760006040517f1e4fbdf70000000000000000000000000000000000000000000000000000000081526004016100bc9190610253565b60405180910390fd5b6100d4816100ee60201b60201c565b5050610590565b80600290816100ea91906104be565b5050565b6000600360009054906101000a900473ffffffffffffffffffffffffffffffffffffffff16905081600360006101000a81548173ffffffffffffffffffffffffffffffffffffffff021916908373ffffffffffffffffffffffffffffffffffffffff1602179055508173ffffffffffffffffffffffffffffffffffffffff168173ffffffffffffffffffffffffffffffffffffffff167f8be0079c531659141344cd1fd0a4f28419497f9722a3daafe3b4186f6b6457e060405160405180910390a35050565b600080fd5b600073ffffffffffffffffffffffffffffffffffffffff82169050919050565b60006101e4826101b9565b9050919050565b6101f4816101d9565b81146101ff57600080fd5b50565b600081519050610211816101eb565b92915050565b60006020828403121561022d5761022c6101b4565b5b600061023b84828501610202565b91505092915050565b61024d816101d9565b82525050565b60006020820190506102686000830184610244565b92915050565b600081519050919050565b7f4e487b7100000000000000000000000000000000000000000000000000000000600052604160045260246000fd5b7f4e487b7100000000000000000000000000000000000000000000000000000000600052602260045260246000fd5b600060028204905060018216806102ef57607f821691505b602082108103610302576103016102a8565b5b50919050565b60008190508160005260206000209050919050565b60006020601f8301049050919050565b600082821b905092915050565b60006008830261036a7fffffffffffffffffffffffffffffffffffffffffffffffffffffffffffffffff8261032d565b610374868361032d565b95508019841693508086168417925050509392505050565b6000819050919050565b6000819050919050565b60006103bb6103b66103b18461038c565b610396565b61038c565b9050919050565b6000819050919050565b6103d5836103a0565b6103e96103e1826103c2565b84845461033a565b825550505050565b600090565b6103fe6103f1565b6104098184846103cc565b505050565b5b8181101561042d576104226000826103f6565b60018101905061040f565b5050565b601f8211156104725761044381610308565b61044c8461031d565b8101602085101561045b578190505b61046f6104678561031d565b83018261040e565b50505b505050565b600082821c905092915050565b600061049560001984600802610477565b1980831691505092915050565b60006104ae8383610484565b9150826002028217905092915050565b6104c78261026e565b67ffffffffffffffff8111156104e0576104df610279565b5b6104ea82546102d7565b6104f5828285610431565b600060209050601f8311600181146105285760008415610516578287015190505b61052085826104a2565b865550610588565b601f19841661053686610308565b60005b8281101561055e57848901518255600182019150602085019450602081019050610539565b8683101561057b5784890151610577601f891682610484565b8355505b6001600288020188555050505b505050505050565b6126b78061059f6000396000f3fe608060405234801561001057600080fd5b50600436106100ce5760003560e01c8063715018a61161008c578063a22cb46511610066578063a22cb4651461020f578063e985e9c51461022b578063f242432a1461025b578063f2fde38b14610277576100ce565b8063715018a6146101cb578063731133e9146101d55780638da5cb5b146101f1576100ce565b8062fdd58e146100d357806301ffc9a71461010357806302fe5305146101335780630e89341c1461014f5780632eb2c2d61461017f5780634e1273f41461019b575b600080fd5b6100ed60048036038101906100e891906116f8565b610293565b6040516100fa9190611747565b60405180910390f35b61011d600480360381019061011891906117ba565b6102ed565b60405161012a9190611802565b60405180910390f35b61014d60048036038101906101489190611963565b6103cf565b005b610169600480360381019061016491906119ac565b6103e3565b6040516101769190611a58565b60405180910390f35b61019960048036038101906101949190611be3565b610477565b005b6101b560048036038101906101b09190611d75565b61051f565b6040516101c29190611eab565b60405180910390f35b6101d3610628565b005b6101ef60048036038101906101ea9190611ecd565b61063c565b005b6101f9610656565b6040516102069190611f5f565b60405180910390f35b61022960048036038101906102249190611fa6565b610680565b005b61024560048036038101906102409190611fe6565b610696565b6040516102529190611802565b60405180910390f35b61027560048036038101906102709190612026565b61072a565b005b610291600480360381019061028c91906120bd565b6107d2565b005b600080600083815260200190815260200160002060008473ffffffffffffffffffffffffffffffffffffffff1673ffffffffffffffffffffffffffffffffffffffff16815260200190815260200160002054905092915050565b60007fd9b67a26000000000000000000000000000000000000000000000000000000007bffffffffffffffffffffffffffffffffffffffffffffffffffffffff1916827bffffffffffffffffffffffffffffffffffffffffffffffffffffffff191614806103b857507f0e89341c000000000000000000000000000000000000000000000000000000007bffffffffffffffffffffffffffffffffffffffffffffffffffffffff1916827bffffffffffffffffffffffffffffffffffffffffffffffffffffffff1916145b806103c857506103c782610858565b5b9050919050565b6103d76108c2565b6103e081610949565b50565b6060600280546103f290612119565b80601f016020809104026020016040519081016040528092919081815260200182805461041e90612119565b801561046b5780601f106104405761010080835404028352916020019161046b565b820191906000526020600020905b81548152906001019060200180831161044e57829003601f168201915b50505050509050919050565b600061048161095c565b90508073ffffffffffffffffffffffffffffffffffffffff168673ffffffffffffffffffffffffffffffffffffffff16141580156104c657506104c48682610696565b155b1561050a5780866040517fe237d92200000000000000000000000000000000000000000000000000000000815260040161050192919061214a565b60405180910390fd5b6105178686868686610964565b505050505050565b6060815183511461056b57815183516040517f5b059991000000000000000000000000000000000000000000000000000000008152600401610562929190612173565b60405180910390fd5b6000835167ffffffffffffffff81111561058857610587611838565b5b6040519080825280602002602001820160405280156105b65781602001602082028036833780820191505090505b50905060005b845181101561061d576105f36105db8287610a5c90919063ffffffff16565b6105ee8387610a7090919063ffffffff16565b610293565b8282815181106106065761060561219c565b5b6020026020010181815250508060010190506105bc565b508091505092915050565b6106306108c2565b61063a6000610a84565b565b6106446108c2565b61065084848484610b4a565b50505050565b6000600360009054906101000a900473ffffffffffffffffffffffffffffffffffffffff16905090565b61069261068b61095c565b8383610be3565b5050565b6000600160008473ffffffffffffffffffffffffffffffffffffffff1673ffffffffffffffffffffffffffffffffffffffff16815260200190815260200160002060008373ffffffffffffffffffffffffffffffffffffffff1673ffffffffffffffffffffffffffffffffffffffff16815260200190815260200160002060009054906101000a900460ff16905092915050565b600061073461095c565b90508073ffffffffffffffffffffffffffffffffffffffff168673ffffffffffffffffffffffffffffffffffffffff161415801561077957506107778682610696565b155b156107bd5780866040517fe237d9220000000000000000000000000000000000000000000000000000000081526004016107b492919061214a565b60405180910390fd5b6107ca8686868686610d53565b505050505050565b6107da6108c2565b600073ffffffffffffffffffffffffffffffffffffffff168173ffffffffffffffffffffffffffffffffffffffff160361084c5760006040517f1e4fbdf70000000000000000000000000000000000000000000000000000000081526004016108439190611f5f565b60405180910390fd5b61085581610a84565b50565b60007f01ffc9a7000000000000000000000000000000000000000000000000000000007bffffffffffffffffffffffffffffffffffffffffffffffffffffffff1916827bffffffffffffffffffffffffffffffffffffffffffffffffffffffff1916149050919050565b6108ca61095c565b73ffffffffffffffffffffffffffffffffffffffff166108e8610656565b73ffffffffffffffffffffffffffffffffffffffff16146109475761090b61095c565b6040517f118cdaa700000000000000000000000000000000000000000000000000000000815260040161093e9190611f5f565b60405180910390fd5b565b80600290816109589190612377565b5050565b600033905090565b600073ffffffffffffffffffffffffffffffffffffffff168473ffffffffffffffffffffffffffffffffffffffff16036109d65760006040517f57f447ce0000000000000000000000000000000000000000000000000000000081526004016109cd9190611f5f565b60405180910390fd5b600073ffffffffffffffffffffffffffffffffffffffff168573ffffffffffffffffffffffffffffffffffffffff1603610a485760006040517f01a83514000000000000000000000000000000000000000000000000000000008152600401610a3f9190611f5f565b60405180910390fd5b610a558585858585610e5e565b5050505050565b600060208202602084010151905092915050565b600060208202602084010151905092915050565b6000600360009054906101000a900473ffffffffffffffffffffffffffffffffffffffff16905081600360006101000a81548173ffffffffffffffffffffffffffffffffffffffff021916908373ffffffffffffffffffffffffffffffffffffffff1602179055508173ffffffffffffffffffffffffffffffffffffffff168173ffffffffffffffffffffffffffffffffffffffff167f8be0079c531659141344cd1fd0a4f28419497f9722a3daafe3b4186f6b6457e060405160405180910390a35050565b600073ffffffffffffffffffffffffffffffffffffffff168473ffffffffffffffffffffffffffffffffffffffff1603610bbc5760006040517f57f447ce000000000000000000000000000000000000000000000000000000008152600401610bb39190611f5f565b60405180910390fd5b600080610bc98585610f10565b91509150610bdb600087848487610e5e565b505050505050565b600073ffffffffffffffffffffffffffffffffffffffff168273ffffffffffffffffffffffffffffffffffffffff1603610c555760006040517fced3e100000000000000000000000000000000000000000000000000000000008152600401610c4c9190611f5f565b60405180910390fd5b80600160008573ffffffffffffffffffffffffffffffffffffffff1673ffffffffffffffffffffffffffffffffffffffff16815260200190815260200160002060008473ffffffffffffffffffffffffffffffffffffffff1673ffffffffffffffffffffffffffffffffffffffff16815260200190815260200160002060006101000a81548160ff0219169083151502179055508173ffffffffffffffffffffffffffffffffffffffff168373ffffffffffffffffffffffffffffffffffffffff167f17307eab39ab6107e8899845ad3d59bd9653f200f220920489ca2b5937696c3183604051610d469190611802565b60405180910390a3505050565b600073ffffffffffffffffffffffffffffffffffffffff168473ffffffffffffffffffffffffffffffffffffffff1603610dc55760006040517f57f447ce000000000000000000000000000000000000000000000000000000008152600401610dbc9190611f5f565b60405180910390fd5b600073ffffffffffffffffffffffffffffffffffffffff168573ffffffffffffffffffffffffffffffffffffffff1603610e375760006040517f01a83514000000000000000000000000000000000000000000000000000000008152600401610e2e9190611f5f565b60405180910390fd5b600080610e448585610f10565b91509150610e558787848487610e5e565b50505050505050565b610e6a85858585610f40565b600073ffffffffffffffffffffffffffffffffffffffff168473ffffffffffffffffffffffffffffffffffffffff1614610f09576000610ea861095c565b90506001845103610ef8576000610ec9600086610a7090919063ffffffff16565b90506000610ee1600086610a7090919063ffffffff16565b9050610ef18389898585896112e8565b5050610f07565b610f0681878787878761149c565b5b505b5050505050565b60608060405191506001825283602083015260408201905060018152826020820152604081016040529250929050565b8051825114610f8a57815181516040517f5b059991000000000000000000000000000000000000000000000000000000008152600401610f81929190612173565b60405180910390fd5b6000610f9461095c565b905060005b83518110156111a3576000610fb78286610a7090919063ffffffff16565b90506000610fce8386610a7090919063ffffffff16565b9050600073ffffffffffffffffffffffffffffffffffffffff168873ffffffffffffffffffffffffffffffffffffffff16146110fb57600080600084815260200190815260200160002060008a73ffffffffffffffffffffffffffffffffffffffff1673ffffffffffffffffffffffffffffffffffffffff168152602001908152602001600020549050818110156110a357888183856040517f03dee4c500000000000000000000000000000000000000000000000000000000815260040161109a9493929190612449565b60405180910390fd5b81810360008085815260200190815260200160002060008b73ffffffffffffffffffffffffffffffffffffffff1673ffffffffffffffffffffffffffffffffffffffff16815260200190815260200160002081905550505b600073ffffffffffffffffffffffffffffffffffffffff168773ffffffffffffffffffffffffffffffffffffffff1614611196578060008084815260200190815260200160002060008973ffffffffffffffffffffffffffffffffffffffff1673ffffffffffffffffffffffffffffffffffffffff168152602001908152602001600020600082825461118e91906124bd565b925050819055505b5050806001019050610f99565b5060018351036112625760006111c3600085610a7090919063ffffffff16565b905060006111db600085610a7090919063ffffffff16565b90508573ffffffffffffffffffffffffffffffffffffffff168773ffffffffffffffffffffffffffffffffffffffff168473ffffffffffffffffffffffffffffffffffffffff167fc3d58168c5ae7397731d063d5bbf3d657854427343f4c083240f7aacaa2d0f628585604051611253929190612173565b60405180910390a450506112e1565b8373ffffffffffffffffffffffffffffffffffffffff168573ffffffffffffffffffffffffffffffffffffffff168273ffffffffffffffffffffffffffffffffffffffff167f4a39dc06d4c0dbc64b70af90fd698a233a518aa5d07e595d983b8c0526c8f7fb86866040516112d89291906124f1565b60405180910390a45b5050505050565b60008473ffffffffffffffffffffffffffffffffffffffff163b1115611494578373ffffffffffffffffffffffffffffffffffffffff1663f23a6e6187878686866040518663ffffffff1660e01b815260040161134995949392919061257d565b6020604051808303816000875af192505050801561138557506040513d601f19601f8201168201806040525081019061138291906125ec565b60015b611409573d80600081146113b5576040519150601f19603f3d011682016040523d82523d6000602084013e6113ba565b606091505b50600081510361140157846040517f57f447ce0000000000000000000000000000000000000000000000000000000081526004016113f89190611f5f565b60405180910390fd5b805181602001fd5b63f23a6e6160e01b7bffffffffffffffffffffffffffffffffffffffffffffffffffffffff1916817bffffffffffffffffffffffffffffffffffffffffffffffffffffffff19161461149257846040517f57f447ce0000000000000000000000000000000000000000000000000000000081526004016114899190611f5f565b60405180910390fd5b505b505050505050565b60008473ffffffffffffffffffffffffffffffffffffffff163b1115611648578373ffffffffffffffffffffffffffffffffffffffff1663bc197c8187878686866040518663ffffffff1660e01b81526004016114fd959493929190612619565b6020604051808303816000875af192505050801561153957506040513d601f19601f8201168201806040525081019061153691906125ec565b60015b6115bd573d8060008114611569576040519150601f19603f3d011682016040523d82523d6000602084013e61156e565b606091505b5060008151036115b557846040517f57f447ce0000000000000000000000000000000000000000000000000000000081526004016115ac9190611f5f565b60405180910390fd5b805181602001fd5b63bc197c8160e01b7bffffffffffffffffffffffffffffffffffffffffffffffffffffffff1916817bffffffffffffffffffffffffffffffffffffffffffffffffffffffff19161461164657846040517f57f447ce00000000000000000000000000000000000000000000000000000000815260040161163d9190611f5f565b60405180910390fd5b505b505050505050565b6000604051905090565b600080fd5b600080fd5b600073ffffffffffffffffffffffffffffffffffffffff82169050919050565b600061168f82611664565b9050919050565b61169f81611684565b81146116aa57600080fd5b50565b6000813590506116bc81611696565b92915050565b6000819050919050565b6116d5816116c2565b81146116e057600080fd5b50565b6000813590506116f2816116cc565b92915050565b6000806040838503121561170f5761170e61165a565b5b600061171d858286016116ad565b925050602061172e858286016116e3565b9150509250929050565b611741816116c2565b82525050565b600060208201905061175c6000830184611738565b92915050565b60007fffffffff0000000000000000000000000000000000000000000000000000000082169050919050565b61179781611762565b81146117a257600080fd5b50565b6000813590506117b48161178e565b92915050565b6000602082840312156117d0576117cf61165a565b5b60006117de848285016117a5565b91505092915050565b60008115159050919050565b6117fc816117e7565b82525050565b600060208201905061181760008301846117f3565b92915050565b600080fd5b600080fd5b6000601f19601f8301169050919050565b7f4e487b7100000000000000000000000000000000000000000000000000000000600052604160045260246000fd5b61187082611827565b810181811067ffffffffffffffff8211171561188f5761188e611838565b5b80604052505050565b60006118a2611650565b90506118ae8282611867565b919050565b600067ffffffffffffffff8211156118ce576118cd611838565b5b6118d782611827565b9050602081019050919050565b82818337600083830152505050565b6000611906611901846118b3565b611898565b90508281526020810184848401111561192257611921611822565b5b61192d8482856118e4565b509392505050565b600082601f83011261194a5761194961181d565b5b813561195a8482602086016118f3565b91505092915050565b6000602082840312156119795761197861165a565b5b600082013567ffffffffffffffff8111156119975761199661165f565b5b6119a384828501611935565b91505092915050565b6000602082840312156119c2576119c161165a565b5b60006119d0848285016116e3565b91505092915050565b600081519050919050565b600082825260208201905092915050565b60005b83811015611a135780820151818401526020810190506119f8565b60008484015250505050565b6000611a2a826119d9565b611a3481856119e4565b9350611a448185602086016119f5565b611a4d81611827565b840191505092915050565b60006020820190508181036000830152611a728184611a1f565b905092915050565b600067ffffffffffffffff821115611a9557611a94611838565b5b602082029050602081019050919050565b600080fd5b6000611abe611ab984611a7a565b611898565b90508083825260208201905060208402830185811115611ae157611ae0611aa6565b5b835b81811015611b0a5780611af688826116e3565b845260208401935050602081019050611ae3565b5050509392505050565b600082601f830112611b2957611b2861181d565b5b8135611b39848260208601611aab565b91505092915050565b600067ffffffffffffffff821115611b5d57611b5c611838565b5b611b6682611827565b9050602081019050919050565b6000611b86611b8184611b42565b611898565b905082815260208101848484011115611ba257611ba1611822565b5b611bad8482856118e4565b509392505050565b600082601f830112611bca57611bc961181d565b5b8135611bda848260208601611b73565b91505092915050565b600080600080600060a08688031215611bff57611bfe61165a565b5b6000611c0d888289016116ad565b9550506020611c1e888289016116ad565b945050604086013567ffffffffffffffff811115611c3f57611c3e61165f565b5b611c4b88828901611b14565b935050606086013567ffffffffffffffff811115611c6c57611c6b61165f565b5b611c7888828901611b14565b925050608086013567ffffffffffffffff811115611c9957611c9861165f565b5b611ca588828901611bb5565b9150509295509295909350565b600067ffffffffffffffff821115611ccd57611ccc611838565b5b602082029050602081019050919050565b6000611cf1611cec84611cb2565b611898565b90508083825260208201905060208402830185811115611d1457611d13611aa6565b5b835b81811015611d3d5780611d2988826116ad565b845260208401935050602081019050611d16565b5050509392505050565b600082601f830112611d5c57611d5b61181d565b5b8135611d6c848260208601611cde565b91505092915050565b60008060408385031215611d8c57611d8b61165a565b5b600083013567ffffffffffffffff811115611daa57611da961165f565b5b611db685828601611d47565b925050602083013567ffffffffffffffff811115611dd757611dd661165f565b5b611de385828601611b14565b9150509250929050565b600081519050919050565b600082825260208201905092915050565b6000819050602082019050919050565b611e22816116c2565b82525050565b6000611e348383611e19565b60208301905092915050565b6000602082019050919050565b6000611e5882611ded565b611e628185611df8565b9350611e6d83611e09565b8060005b83811015611e9e578151611e858882611e28565b9750611e9083611e40565b925050600181019050611e71565b5085935050505092915050565b60006020820190508181036000830152611ec58184611e4d565b905092915050565b60008060008060808587031215611ee757611ee661165a565b5b6000611ef5878288016116ad565b9450506020611f06878288016116e3565b9350506040611f17878288016116e3565b925050606085013567ffffffffffffffff811115611f3857611f3761165f565b5b611f4487828801611bb5565b91505092959194509250565b611f5981611684565b82525050565b6000602082019050611f746000830184611f50565b92915050565b611f83816117e7565b8114611f8e57600080fd5b50565b600081359050611fa081611f7a565b92915050565b60008060408385031215611fbd57611fbc61165a565b5b6000611fcb858286016116ad565b9250506020611fdc85828601611f91565b9150509250929050565b60008060408385031215611ffd57611ffc61165a565b5b600061200b858286016116ad565b925050602061201c858286016116ad565b9150509250929050565b600080600080600060a086880312156120425761204161165a565b5b6000612050888289016116ad565b9550506020612061888289016116ad565b9450506040612072888289016116e3565b9350506060612083888289016116e3565b925050608086013567ffffffffffffffff8111156120a4576120a361165f565b5b6120b088828901611bb5565b9150509295509295909350565b6000602082840312156120d3576120d261165a565b5b60006120e1848285016116ad565b91505092915050565b7f4e487b7100000000000000000000000000000000000000000000000000000000600052602260045260246000fd5b6000600282049050600182168061213157607f821691505b602082108103612144576121436120ea565b5b50919050565b600060408201905061215f6000830185611f50565b61216c6020830184611f50565b9392505050565b60006040820190506121886000830185611738565b6121956020830184611738565b9392505050565b7f4e487b7100000000000000000000000000000000000000000000000000000000600052603260045260246000fd5b60008190508160005260206000209050919050565b60006020601f8301049050919050565b600082821b905092915050565b60006008830261222d7fffffffffffffffffffffffffffffffffffffffffffffffffffffffffffffffff826121f0565b61223786836121f0565b95508019841693508086168417925050509392505050565b6000819050919050565b600061227461226f61226a846116c2565b61224f565b6116c2565b9050919050565b6000819050919050565b61228e83612259565b6122a261229a8261227b565b8484546121fd565b825550505050565b600090565b6122b76122aa565b6122c2818484612285565b505050565b5b818110156122e6576122db6000826122af565b6001810190506122c8565b5050565b601f82111561232b576122fc816121cb565b612305846121e0565b81016020851015612314578190505b612328612320856121e0565b8301826122c7565b50505b505050565b600082821c905092915050565b600061234e60001984600802612330565b1980831691505092915050565b6000612367838361233d565b9150826002028217905092915050565b612380826119d9565b67ffffffffffffffff81111561239957612398611838565b5b6123a38254612119565b6123ae8282856122ea565b600060209050601f8311600181146123e157600084156123cf578287015190505b6123d9858261235b565b865550612441565b601f1984166123ef866121cb565b60005b82811015612417578489015182556001820191506020850194506020810190506123f2565b868310156124345784890151612430601f89168261233d565b8355505b6001600288020188555050505b505050505050565b600060808201905061245e6000830187611f50565b61246b6020830186611738565b6124786040830185611738565b6124856060830184611738565b95945050505050565b7f4e487b7100000000000000000000000000000000000000000000000000000000600052601160045260246000fd5b60006124c8826116c2565b91506124d3836116c2565b92508282019050808211156124eb576124ea61248e565b5b92915050565b6000604082019050818103600083015261250b8185611e4d565b9050818103602083015261251f8184611e4d565b90509392505050565b600081519050919050565b600082825260208201905092915050565b600061254f82612528565b6125598185612533565b93506125698185602086016119f5565b61257281611827565b840191505092915050565b600060a0820190506125926000830188611f50565b61259f6020830187611f50565b6125ac6040830186611738565b6125b96060830185611738565b81810360808301526125cb8184612544565b90509695505050505050565b6000815190506125e68161178e565b92915050565b6000602082840312156126025761260161165a565b5b6000612610848285016125d7565b91505092915050565b600060a08201905061262e6000830188611f50565b61263b6020830187611f50565b818103604083015261264d8186611e4d565b905081810360608301526126618185611e4d565b905081810360808301526126758184612544565b9050969550505050505056fea2646970667358221220b000585462befaf7fbe5f1c478b889632aee77dd9300561c15898c1531d3585b64736f6c634300081b0033",
  "linkReferences": {},
  "deployedLinkReferences": {}
}